:1000000009C1000038C1000036C1000034C1000041
:1000100032C1000030C100002EC100002CC1000020
:100020002AC1000028C1000026C1000024C1000030
:1000300022C1000020C100001EC100001CC1000040
:100040001AC1000051C4000016C1000014C1000014
:1000500012C1000010C100000EC100000C943F0D41
:100060000AC100000C941A0C0C94500C04C100003E
:1000700002C1000000C10000FEC00000FCC0000082
:1000800060C40000F8C00000F6C0000041C60000D7
:10009000F2C00000F0C00000EEC000000C94970811
:1000A000EAC00000E8C0000079C40000E4C000001D
:1000B000E2C00000E0C00000DEC000009CC4000000
:1000C000DAC00000D8C00000D6C00000D4C00000D4
:1000D000D2C00000D0C00000CEC00000CCC00000E4
:1000E000CAC00000020A050AF409F809FE093C0A20
:1000F000090A0D0A130A170A1B0A210A250A290AE6
:100100003C0A2F0A330A370A00000A0B02090C0DB9
:100110000E080703040100000000000000000000BA
:1001200000000000000000000000000000000000CF
:10013000000000001211100000000000000000008C
:1001400000000000000000000000000000000102AC
:1001500010202008081020401020408002010201D9
:100160000804020101020408102040808040201091
:1001700008040201800402018040201008040201EA
:100180000804020101020408102040800102040852
:10019000102040800505050507050808080802022B
:1001A00002020A0A08080404040401010101010111
:1001B00001010303030303030303040707070C0CF4
:1001C0000C0C0C0C0C0C02020202060606060606BB
:1001D00006060B0B0B0B0B0B0B0B00002200250074
:1001E00028002B002E003100340002010000050120
:1001F00008010B0100002100240027002A002D0027
:100200003000330001010000040107010A019202DD
:10021000FC07820C11241FBECFEFD1E2DEBFCDBFA1
:1002200000E00CBF12E0A0E0B2E0E8EDF5E200E093
:100230000BBF02C007900D92A038B107D9F724E098
:10024000A0E8B2E001C01D92AE39B207E1F712E0BA
:10025000C4E1D2E000E006C022970109FE010BBF15
:100260000E94F10FCE30D10780E00807A9F70E9465
:10027000C60C0C94EA12C4CEE091F203F091F303A1
:100280000190F081E02D682F82EF93E0199580E0D6
:1002900090E0089526E040E855E260E070E082EFEB
:1002A00093E00E94BA0B8CE391E090938E028093CE
:1002B0008D021092900210928F0282E08093880249
:1002C000109292021092910285E892E090939B0422
:1002D00080939A0440E452E46FE070E08DE293E092
:1002E000A5D520E137E240E050E06AE073E08DE21E
:1002F00093E0ABD580E019D124E338E044E853E043
:1003000063E070E082E892E0BFD3D7D161E084E09F
:100310000C943D0AEF92FF920F931F93CF93DF93BC
:10032000CDB7DEB72A970FB6F894DEBF0FBECDBFAC
:10033000CE01019616D10C811E816B81772767FD56
:100340007095872F972F0E94860E905820E030E0FE
:1003500048EC52E40E94EB0D20E030E044EB52E424
:100360000E94120F0E94530E665A7F4F82E892E05D
:100370006CD420E8101654F40203C001112464E682
:1003800070E00E94900F862F61E009C00202C00158
:10039000112464E670E00E94900F862F60E0B1D1D6
:1003A00080910E0290910F02892BA1F019D1C29772
:1003B0000CF03DC08091800290918102892BB9F5AB
:1003C0008DE292E00E94291081E090E090938102FA
:1003D000809380028F81811102C060E001C061E0E2
:1003E00084E00E94760A80910E0290910F02892B80
:1003F00021F4F6D0C2970CF451C06BD19F938F9328
:1004000080E292E09F938F930E9418100F900F90BC
:100410000F900F902A960FB6F894DEBF0FBECDBF97
:10042000DF91CF911F910F91FF90EF900895D8D059
:10043000C397FCF08091800290918102892BC9F0D2
:10044000812F992787FD90959F931F9381E192E0DB
:100450009F938F930E94181010920F0210920E0219
:1004600010928102109280020F900F900F900F90C7
:10047000B1CFB6D0C3970CF4ADCF812F992787FDAC
:1004800090959F931F9381E192E09F938F930E9499
:10049000181010920F0210920E02E6CF81E090E049
:1004A00090930F0280930E0210919302E0909402B9
:1004B000F090950200919602109306021F921F92EF
:1004C0001F921F92612F7E2D8F2D902F2AE030E0FA
:1004D00040E050E00E94C50F9F938F937F936F93EE
:1004E000612F7E2D8F2D902F24E630E040E050E0EC
:1004F0000E94C50F5F934F933F932F938BE492E03D
:100500009F938F930E94181010929302109294025E
:1005100010929502109296020FB6F894DEBF0FBEAD
:10052000CDBF6BCF82E892E093C2CF93DF931F924F
:10053000CDB7DEB7898304D1B7D08981482F60EE6B
:100540008FE097D040E660E680E693D040E064E03C
:1005500080E68FD040E06FEF8BE20F90DF91CF917C
:1005600088C0EF92FF920F931F93CF93DF93EC011C
:100570008AE0FE0111928A95E9F78CE265D080FF4E
:1005800027C082E661D0182F81E65ED0912F929528
:1005900096959770F8E08F9F900D1124988385E6CB
:1005A00053D08F70E82E89838E010E5F1F4FF12C80
:1005B000FE1441F086E68F0D47D0F80181938F013C
:1005C000F394F6CF1092970240E061E08CE251D0B4
:1005D000CE01DF91CF911F910F91FF90EF90089581
:1005E0000F931F93CF93DF930AE010E0C0E0D0E0B9
:1005F00086E3CBD6C80FD91F01501109C9F7CE0128
:100600006AE070E00E94900FCB01DF91CF911F91C3
:100610000F91089580910E0290910F02892B99F409
:100620008091930290919402A0919502B0919602CC
:100630000196A11DB11D8093930290939402A09303
:100640009502B093960208951F93CF93DF931F9264
:10065000CDB7DEB7182F85D083E07AD0812F78D040
:100660007CD0898380D089810F90DF91CF911F91B9
:1006700008951F93CF93DF931F921F92CDB7DEB7DC
:10068000182F4A8369836DD085E062D0812F60D0B6
:100690006981862F5DD04A81842F5AD00F900F90A8
:1006A000DF91CF911F915FC05CD080EC51D05BD0C7
:1006B00085E08A95F1F70000089582E393E074D411
:1006C00080B3886F80BB1092070181B3806D81BBBE
:1006D00008958F988D982AE62A95F1F700C08091A9
:1006E000060190E0982F88278D9A2AE62A95F1F73F
:1006F00000C0209106018E988E9A8F9A820F911DCC
:100700000895CF93C82F662311F08B9A01C08B9860
:1007100068E270E082E393E05AD4E0913203F09112
:1007200033030190F081E02D60E082E393E01995BE
:100730006C2F82E393E0FAD382E393E0CF915AC423
:1007400084B1876084B923988CB582658CBD089587
:100750008EBD0DB407FEFDCF089580E0F9DF8EB5A4
:10076000089528980895289A0895CF92DF92EF92DD
:10077000FF920F931F93CF93DF936C018B017A014C
:10078000EC01C756DD4F888187FF04C0FB01118251
:10079000108223C02CE02C9DC0012D9D900D1124B2
:1007A0002881AC01420F511D27FD5A9520919802D6
:1007B00030E0421753078CF42881AC01420F511DE1
:1007C00027FD5A959A01FA01EE0FFF1FE20FF31F62
:1007D000E356FD4F208126FD19C088818F5F8883F5
:1007E0008CE08C9D90018D9D300D11248881A90194
:1007F000480F511D87FD5A958091980290E0481747
:100800005907ACF488818C3034F111C02881820FF3
:10081000911D27FD9A95FC01EE0FFF1FE80FF91FB0
:10082000E356FD4F808160E08F7360D6D6CFF8012C
:1008300080819181049680349C4918F480E49CE97D
:1008400004C0F801808191810496F701918380832F
:100850008FEF888340C0F801808191814881B90180
:10086000640F711D47FD7A95AB01FB01EE0FFF1F71
:10087000E40FF51FE356FD4F41815281840F951F10
:10088000F701918380838881A901480F511D87FD5D
:100890005A95FA01EE0FFF1FE40FF51FE356FD4FC7
:1008A000808186FF18C08881280F311D87FD3A9509
:1008B000F901EE0FFF1FE20FF31FE356FD4F80819A
:1008C00061E08F73DF91CF911F910F91FF90EF90B7
:1008D000DF90CF900BC6DF91CF911F910F91FF90CA
:1008E000EF90DF90CF9008951F920F920FB60F9266
:1008F00011240BB60F922F933F934F935F936F93F7
:100900007F938F939F93AF93BF93EF93FF9348E8A9
:1009100050E064E870E081E090E027DFFF91EF9124
:10092000BF91AF919F918F917F916F915F914F9107
:100930003F912F910F900BBE0F900FBE0F901F9005
:1009400018951F920F920FB60F9211240BB60F92AB
:100950002F933F934F935F936F937F938F939F93C7
:10096000AF93BF93EF93FF9348E950E064E970E0E1
:1009700082E090E0FADEFF91EF91BF91AF919F91FD
:100980008F917F916F915F914F913F912F910F9038
:100990000BBE0F900FBE0F901F9018951F920F92D5
:1009A0000FB60F9211240BB60F922F933F934F93D4
:1009B0005F936F937F938F939F93AF93BF93EF93C7
:1009C000FF9348EA50E064EA70E083E090E0CDDE17
:1009D000FF91EF91BF91AF919F918F917F916F9117
:1009E0005F914F913F912F910F900BBE0F900FBED3
:1009F0000F901F9018951F920F920FB60F9211240F
:100A00000BB60F922F933F934F935F936F937F9308
:100A10008F939F93AF93BF93EF93FF9348E251E07F
:100A200064E271E080E090E0A0DEFF91EF91BF9181
:100A3000AF919F918F917F916F915F914F913F9176
:100A40002F910F900BBE0F900FBE0F901F90189517
:100A5000209198022033A0F431E0320F30939802B5
:100A6000FC012083822F90E0FC01EE0FFF1FE80FB6
:100A7000F91FE356FD4F88EB9BE092838183089535
:100A80002FEFFC0120830895DF92EF92FF920F93E6
:100A90001F93CF93DF93EC01D62E7A0189018881D1
:100AA000803308F067C061E08D2DE7D48881A82FDE
:100AB000B0E0FD01EE0FFF1FEA0FFB1FE356FD4FF5
:100AC0002D2D2F739081907C922B908360E272E0A9
:100AD0006E197F0977FF02C06D5F7F4F759567952F
:100AE00075956795698340E659E0401B510B57FFA8
:100AF00002C04D5F5F4F55954795559547954A8381
:100B00006CE00E94840F9CE0899FB001112420E0DA
:100B100030E0A901460F571FFA01EE0FFF1FE40F47
:100B2000F51FE356FD4F908196FD18C02F5F3F4F94
:100B30002C30310571F790E08130910521F510924C
:100B4000800082E0809381001092850010928400E2
:100B5000B19A80916F00826080936F00888190E0ED
:100B6000FC01EE0FFF1FE80FF91FE356FD4F8081D8
:100B7000806480838881DF91CF911F910F91FF90D6
:100B8000EF90DF9008958230910569F41092900003
:100B900082E080939100109295001092940088BB9F
:100BA00080937100DBCF8330910569F41092A0002F
:100BB00082E08093A1001092A5001092A40089BB4E
:100BC00080937200CBCF892B49F61092200182E0EE
:100BD0008093210110922501109224018ABB8093F9
:100BE0007300BCCFFC018081803370F5918128E8CF
:100BF00030E0291B310997FD3395220F331F220F57
:100C0000331F621773077CF0928128E532E0291BBD
:100C1000310997FD3395220F331F220F331F6217BF
:100C200073070CF49B0122503109220F331F4FB779
:100C3000F89490E0FC01EE0FFF1FE80FF91FE35658
:100C4000FD4F328321834FBF08954F925F926F9281
:100C50007F92AF92BF92CF92DF92EF92FF920F936B
:100C60001F93CF93DF93EC01603282E078070CF0A2
:100C70003FC077FD06C0653B71052CF064EB70E06A
:100C800002C060E070E0898128E830E0281B31096B
:100C900087FD3395220F331F220F331F5901CC24B8
:100CA000B7FCC094DC2C882777FD8095982F2A818B
:100CB00048E552E0421B510927FD5395440F551F4B
:100CC000440F551F2A01662457FC6094762C7F92AE
:100CD0006F925F924F9214EBE12EF12C00E010E046
:100CE00020E030E0A90186D60F900F900F900F9072
:100CF000CE01DF91CF911F910F91FF90EF90DF9088
:100D0000CF90BF90AF907F906F905F904F906ACFE1
:100D10001F920F920FB60F9211240BB60F922F93C2
:100D20003F934F935F936F937F938F939F93AF9373
:100D3000BF93EF93FF93E0913003F0913103199546
:100D4000FF91EF91BF91AF919F918F917F916F91A3
:100D50005F914F913F912F910F900BBE0F900FBE5F
:100D60000F901F901895FC01A3E0440F551F661FBC
:100D7000771FAA95D1F74115510581E068077105E4
:100D800014F481E00EC033E075956795579547954B
:100D90003A95D1F74115510581E0680771051CF4BA
:100DA00082E0828331C023E075956795579547951A
:100DB0002A95D1F74115510581E06807710514F4B2
:100DC00083E0EFCF92E075956795579547959A9593
:100DD000D1F74115510581E06807710514F484E0ED
:100DE000E0CF82E075956795579547958A95D1F73D
:100DF00085E082834115510581E06807710524F083
:100E00004FEF5FEF60E070E05183408350939700B5
:100E10004093960080919100887F8093910080910B
:100E200091009281892B80939100089510929000F7
:100E300020E12093910097CFE1E9F0E02081DC01EF
:100E400012968C91282B208308950F931F93CF9394
:100E5000DF93EC018B01BA01A901141615061606E1
:100E600017060CF480DF1C830B8381E080937100F4
:100E70007894CE01DF91CF911F910F91DDCF8091BA
:100E8000620390E020916303821B910908952091F1
:100E9000630380916203281750F4E22FF0E0EC59CD
:100EA000FC4F808190E02F5F2093630308958FEFC4
:100EB0009FEF0895E091630380916203E81730F497
:100EC000F0E0EC59FC4F808190E008958FEF9FEFA8
:100ED00008950895CF92DF92EF92FF920F931F93A0
:100EE000CF93DF937C01CB018A0120913E03222323
:100EF00089F0EB016B01C40ED51ECC15DD0561F048
:100F00006991D701ED91FC910190F081E02DC7012D
:100F10001995F3CF642FE2D0C801DF91CF911F91D3
:100F20000F91FF90EF90DF90CF900895CF93DF93D4
:100F30001F92CDB7DEB7698320913E032223D1F003
:100F400020913F03203240F021E030E0FC01338368
:100F5000228380E090E014C080914003E82FF0E00D
:100F6000EF5BFC4F998190838F5F80934003809368
:100F70003F0304C061E0CE010196B0D081E090E073
:100F80000F90DF91CF910895FC011382128248EEF9
:100F900053E060E070E0448355836683778384E6A2
:100FA00092E091838083089510926303109262030C
:100FB0001092400310923F0322C081E080933E03D1
:100FC000609361031092400310923F030895F5CFA0
:100FD0000F93062F21E040913F0361E473E080917D
:100FE000610329D01092400310923F0310923E03F8
:100FF0000F91089561E0ECCF82E393E0C5CF1092AA
:10100000F10381E08093EF031092EE0361E084E14D
:101010006DD261E085E16AD2E9EBF0E080818E7FFC
:10102000808380818D7F808388E48093B80085E40D
:101030008093BC0008950F93413208F046C0909110
:10104000F1039111FCCF92E09093F1030093EF0331
:101050009FEF909384031092C9034093C803FB0150
:101060006AEC73E0DB019A2F961B941718F49191A8
:101070009D93F9CF1092F0039091F003880F892B84
:101080008093F0038091EE03813041F41092EE03DF
:101090008091F0038093BB0085EC01C085EE8093C6
:1010A000BC00222321F08091F1038230E1F3809192
:1010B00084038F3F61F080918403803251F08091EE
:1010C0008403803341F483E007C081E005C080E001
:1010D00003C082E001C084E00F910895613298F46A
:1010E0002091F103243089F46093A603FC0188EA7F
:1010F00093E0DC012A2F281B261718F421912D9349
:10110000F9CF80E0089581E0089582E0089585EDAB
:101110008093BC008091BC0084FDFCCF1092F10351
:10112000089585EC8093BC001092F10308951F92FE
:101130000F920FB60F9211240BB60F922F933F937D
:101140004F935F936F937F938F939F93AF93BF93CF
:10115000EF93FF938091B900887F803609F49CC09B
:1011600068F5883209F45BC090F4803109F454C00A
:1011700038F4882309F4F3C0883009F44DC0F2C074
:10118000883109F44CC0803209F45DC0EBC0803472
:1011900009F468C048F4803309F455C0883309F075
:1011A000E1C080938403A7C0803509F44FC088351F
:1011B00009F45DC0883409F0D5C0D3C0883909F47A
:1011C000C4C0A8F4883709F467C038F4883609F435
:1011D00063C0803709F460C0C5C0883809F4B5C061
:1011E000803909F45FC0803809F0BCC05BC0803B27
:1011F00009F483C038F4803A09F466C0883A09F4E7
:101200007CC0B0C0803C09F4A4C0883C09F4A1C0F3
:10121000883B09F487C0A6C08091F00310C090916C
:10122000C9038091C803981770F5E091C90381E064
:101230008E0F8093C903F0E0E653FC4F80818093CA
:10124000BB0085EC83C0809384038BC0E091C9030D
:1012500081E08E0F8093C9038091BB00F0E0E653DC
:10126000FC4F80839091C9038091C8036BC0E091CB
:10127000C90381E08E0F8093C9038091BB00F0E029
:10128000E653FC4F80838091EF0381116AC081E0B7
:101290008093EE0384EA5EC083E08093F1031092B2
:1012A0008503CFCF80918503803208F04EC0E09156
:1012B000850381E08E0F809385038091BB00F0E071
:1012C000EA57FC4F8083BDCF80918503803230F494
:1012D000E0918503F0E0EA57FC4F108218DF60913F
:1012E000850370E0E091EA03F091EB0386E893E078
:1012F00019951092850315DF35C084E08093F103C2
:101300001092A7031092A603E091EC03F091ED0375
:1013100019958091A603811105C081E08093A603F1
:101320001092A803E091A70381E08E0F8093A7039A
:10133000F0E0E855FC4F80818093BB009091A703BB
:101340008091A603981708F47CCF85E88093BC00B1
:1013500009C085EC8093BC001092F10303C0109289
:101360008403D5DEFF91EF91BF91AF919F918F9153
:101370007F916F915F914F913F912F910F900BBE95
:101380000F900FBE0F901F901895863308F086536C
:1013900020917B00982F9870277F922B90937B0051
:1013A00087702091100290E4299F90011124822BD4
:1013B00080937C0080917A00806480937A00809191
:1013C0007A0086FDFCCF809178002091790090E032
:1013D000922B089590E0FC013197E231F10508F07D
:1013E0004BC0EE58FF4FEDC5809180008F7703C052
:1013F000809180008F7D809380000895809180008F
:10140000877FF9CF84B58F7702C084B58F7D84BD87
:1014100008958091B0008F7703C08091B0008F7DD8
:101420008093B0000895809190008F7707C08091DD
:1014300090008F7D03C080919000877F8093900003
:1014400008958091A0008F7707C08091A0008F7DC4
:1014500003C08091A000877F8093A00008958091B1
:1014600020018F7707C0809120018F7D03C080917C
:101470002001877F809320010895CF93DF9390E030
:10148000FC01E25BFE4F2491FC01EC56FE4F84917F
:10149000882349F190E0880F991FFC01EC50FE4F22
:1014A000A591B49186529E4FFC01C591D4919FB7EE
:1014B000611108C0F8948C91209582238C938881C7
:1014C00082230AC0623051F4F8948C91322F309507
:1014D00083238C938881822B888304C0F8948C9119
:1014E000822B8C939FBFDF91CF9108950F931F9311
:1014F000CF93DF931F92CDB7DEB7282F30E0F901ED
:10150000E85FFE4F8491F901E25BFE4F1491F9010F
:10151000EC56FE4F04910023C1F0882319F0698333
:1015200059DF6981E02FF0E0EE0FFF1FE652FE4F1A
:10153000A591B4919FB7F8948C91611103C0109557
:10154000812301C0812B8C939FBF0F90DF91CF919E
:101550001F910F910895FC01818D228D90E0805C98
:101560009F4F821B91098F7399270895FC01918DDC
:10157000828D981731F0828DE80FF11D858D90E0F6
:1015800008958FEF9FEF0895FC01918D828D98173C
:1015900061F0828DDF01A80FB11D5D968C91928D57
:1015A0009F5F9F73928F90E008958FEF9FEF089554
:1015B00089E79CE0892B39F080E090E0892B19F0D5
:1015C00098D1811125C080E090E0892B41F080E026
:1015D00090E0892B21F00E94000081111CC080E066
:1015E00090E0892B41F080E090E0892B21F00E946F
:1015F0000000811113C080E090E0892BA1F080E011
:1016000090E0892B81F00E94000081110AC00895AA
:101610000E940000D8CF0E940000E1CF0E9400008D
:10162000EACF0C9400000895FC01848DDF01A80F1F
:10163000B11DA35ABF4F2C91848D90E001968F73FA
:101640009927848FA689B7892C93A089B1898C9119
:1016500080648C93938D848D981306C00288F389DF
:10166000E02D80818F7D80830895CF93DF93EC01FF
:10167000888D8823C1F0EA89FB89808185FD05C0BA
:10168000A889B9898C9186FD0EC00FB607FCF5CFED
:10169000808185FFF2CFA889B9898C9185FFEDCF34
:1016A000CE01C2DFE8CFDF91CF910895CF92DF92D4
:1016B000FF920F931F93CF93DF931F92CDB7DEB7A7
:1016C0006C0181E0D60158968C9358975B969C915B
:1016D0005B975C968C915C97981307C05096ED9140
:1016E000FC915197808185FD2DC0F601038D10E09E
:1016F0000F5F1F4F0F731127F02EF601848DF81224
:1017000010C00FB607FCF9CFD6015096ED91FC91B1
:101710005197808185FFF1CFC601698385DF69819B
:10172000ECCF838DE80FF11DE35AFF4F6083D601A4
:101730005B960C935B975296ED91FC915397808149
:1017400080620CC0D6015696ED91FC91579760834C
:101750005096ED91FC91519780818064808381E067
:1017600090E00F90DF91CF911F910F91FF90DF904C
:10177000CF900895BF92CF92DF92EF92FF92CF93D6
:10178000DF93EC016A017B01B22EE889F98982E0DE
:101790008083411581EE58076105710599F060E07D
:1017A00079E08DE390E0A7019601CDD32150310976
:1017B000410951095695479537952795211580E19F
:1017C000380790F0E889F989108260E874E88EE1C2
:1017D00090E0A7019601B7D3215031094109510981
:1017E0005695479537952795EC85FD853083EE8591
:1017F000FF852083188EEC89FD89B082EA89FB89F8
:10180000808180618083EA89FB8980818860808310
:10181000EA89FB89808180688083EA89FB898081ED
:101820008F7D8083DF91CF91FF90EF90DF90CF90FD
:10183000BF9008951F920F920FB60F9211240BB60E
:101840000F922F938F939F93EF93FF93E091020456
:10185000F09103048081E0910804F091090482FD75
:1018600012C0908180910B048F5F8F7320910C04C4
:10187000821751F0E0910B04F0E0EE50FC4F958F91
:1018800080930B0401C08081FF91EF919F918F9114
:101890002F910F900BBE0F900FBE0F901F901895B9
:1018A0001F920F920FB60F9211240BB60F922F9327
:1018B0003F934F935F936F937F938F939F93AF93D8
:1018C000BF93EF93FF9382EF93E0AEDEFF91EF9132
:1018D000BF91AF919F918F917F916F915F914F9148
:1018E0003F912F910F900BBE0F900FBE0F901F9046
:1018F000189582EF93E02FDE21E0892B09F420E098
:10190000822F08951092F5031092F40388EE93E06D
:10191000A0E0B0E08093F6039093F703A093F80360
:10192000B093F90384E792E09093F3038093F2037A
:1019300085EC90E09093FF038093FE0384EC90E0AD
:10194000909301048093000480EC90E09093030452
:101950008093020481EC90E090930504809304044A
:1019600082EC90E0909307048093060486EC90E06C
:10197000909309048093080410920B0410920C04B5
:1019800010920D0410920E0408950895C2D0FDDF48
:101990000E944A01C8EDDAE00E948A012097E1F333
:1019A00007DEFACFCF92DF92EF92FF920F931F9351
:1019B000CF93DF936C017A01EB01E60EF71E00E096
:1019C00010E0CE15DF0561F06991D601ED91FC9133
:1019D0000190F081E02DC6011995080F191FF1CF74
:1019E000C801DF91CF911F910F91FF90EF90DF9091
:1019F000CF9008954F925F926F927F92AF92BF9275
:101A0000CF92DF92EF92FF920F931F93CF93DF93CA
:101A1000CDB7DEB729013A01621B730B840B950B1E
:101A20002A893B894C895D892A193B094C095D0942
:101A30002A8B3B8B4C8B5D8B9B01AC016A897B892C
:101A40008C899D8952D2E418F50806091709A80166
:101A500097019BD22A0D3B1D4C1D5D1DCA01B9018A
:101A6000DF91CF911F910F91FF90EF90DF90CF907A
:101A7000BF90AF907F906F905F904F9008951F92AE
:101A80000F920FB60F9211242F933F938F939F9332
:101A9000AF93BF938091900490919104A091920490
:101AA000B091930430918F0423E0230F2D3720F45D
:101AB0000196A11DB11D05C026E8230F0296A11DA8
:101AC000B11D20938F048093900490939104A09370
:101AD0009204B09393048091940490919504A09102
:101AE0009604B09197040196A11DB11D80939404B2
:101AF00090939504A0939604B0939704BF91AF91EF
:101B00009F918F913F912F910F900FBE0F901F903B
:101B10001895789484B5826084BD84B5816084BD55
:101B200085B5826085BD85B5816085BDEEE6F0E056
:101B3000808181608083E1E8F0E0108280818260B2
:101B40008083808181608083E0E8F0E08081816033
:101B50008083E1EBF0E0808184608083E0EBF0E063
:101B6000808181608083E1E9F0E080818260808310
:101B7000808181608083E0E9F0E080818160808302
:101B8000E1EAF0E0808182608083808181608083EF
:101B9000E0EAF0E0808181608083E1E2F1E0808131
:101BA00082608083808181608083E0E2F1E08081D7
:101BB00081608083EAE7F0E08081846080838081B7
:101BC000826080838081816080838081806880835F
:101BD0001092C10008950CD0EBC0E3D040F0DAD0F1
:101BE00030F021F45F3F19F0CCC0511115C1CFC0C6
:101BF000F0D098F39923C9F35523B1F3951B550BF6
:101C0000BB27AA2762177307840738F09F5F5F4FCF
:101C1000220F331F441FAA1FA9F333D00E2E3AF010
:101C2000E0E830D091505040E695001CCAF729D02A
:101C3000FE2F27D0660F771F881FBB1F2617370779
:101C40004807AB07B0E809F0BB0B802DBF01FF27A9
:101C500093585F4F2AF09E3F510568F092C0DCC058
:101C60005F3FECF3983EDCF3869577956795B795E3
:101C7000F7959F5FC9F7880F911D9695879597F9FE
:101C80000895E1E0660F771F881FBB1F6217730777
:101C90008407BA0720F0621B730B840BBA0BEE1F8C
:101CA00088F7E095089504D06894B111B5C00895FF
:101CB00098D088F09F5790F0B92F9927B751A0F08E
:101CC000D1F0660F771F881F991F1AF0BA95C9F7D0
:101CD00012C0B13081F09FD0B1E008959CC0672F51
:101CE000782F8827B85F39F0B93FCCF38695779580
:101CF0006795B395D9F73EF4909580957095619569
:101D00007F4F8F4F9F4F0895E89409C097FB3EF493
:101D100090958095709561957F4F8F4F9F4F992338
:101D2000A9F0F92F96E9BB279395F69587957795B6
:101D30006795B795F111F8CFFAF4BB0F11F460FF76
:101D40001BC06F5F7F4F8F4F9F4F16C0882311F0CE
:101D500096E911C0772321F09EE8872F762F05C0E2
:101D6000662371F096E8862F70E060E02AF09A957D
:101D7000660F771F881FDAF7880F9695879597F972
:101D8000089597F99F6780E870E060E008959FEFFD
:101D900080EC089500240A94161617061806090602
:101DA000089500240A9412161306140605060895D1
:101DB000092E0394000C11F4882352F0BB0F40F459
:101DC000BF2B11F460FF04C06F5F7F4F8F4F9F4F99
:101DD000089557FD9058440F551F59F05F3F71F01B
:101DE0004795880F97FB991F61F09F3F79F0879582
:101DF0000895121613061406551FF2CF4695F1DF0B
:101E000008C0161617061806991FF1CF869571059A
:101E1000610508940895E894BB2766277727CB01CE
:101E200097F908950BD0C4CFB5DF28F0BADF18F0CA
:101E3000952309F0A6CFABCF1124EECFCADFA0F3D4
:101E4000959FD1F3950F50E0551F629FF001729F4F
:101E5000BB27F00DB11D639FAA27F00DB11DAA1F6E
:101E6000649F6627B00DA11D661F829F2227B00DBB
:101E7000A11D621F739FB00DA11D621F839FA00D46
:101E8000611D221F749F3327A00D611D231F849F96
:101E9000600D211D822F762F6A2F11249F575040ED
:101EA0008AF0E1F088234AF0EE0FFF1FBB1F661F88
:101EB000771F881F91505040A9F79E3F510570F041
:101EC00060CFAACF5F3FECF3983EDCF38695779521
:101ED0006795B795F795E7959F5FC1F7FE2B880F3C
:101EE000911D9695879597F90895DB018F939F93A0
:101EF0006ED0BF91AF91A29F800D911DA39F900DB9
:101F0000B29F900D11240895991B79E004C0991F88
:101F1000961708F0961B881F7A95C9F78095089543
:101F200097FB072E16F4009406D077FD08D05DD0FD
:101F300007FC05D03EF4909581959F4F08957095CC
:101F400061957F4F0895A1E21A2EAA1BBB1BFD01CC
:101F50000DC0AA1FBB1FEE1FFF1FA217B307E40788
:101F6000F50720F0A21BB30BE40BF50B661F771FE0
:101F7000881F991F1A9469F76095709580959095C0
:101F80009B01AC01BD01CF010895052E97FB16F40E
:101F900000940FD057FD05D0D6DF07FC02D046F4E1
:101FA00008C050954095309521953F4F4F4F5F4F5A
:101FB000089590958095709561957F4F8F4F9F4FB5
:101FC0000895EE0FFF1F0590F491E02D199421D094
:101FD000A59F900DB49F900DA49F800D911D11247D
:101FE00008950790F691E02D1994AA1BBB1B51E1AF
:101FF00007C0AA1FBB1FA617B70710F0A61BB70B79
:10200000881F991F5A95A9F780959095BC01CD011D
:102010000895A29FB001B39FC001A39F700D811DC1
:102020001124911DB29F700D811D1124911D0895E1
:10203000CF93DF93CDB7DEB7FE01369661917191F4
:10204000AF0180919A0490919B0430D0DF91CF91A1
:1020500008950F931F93CF93DF93E0919A04F0912B
:102060009B04238121FF1BC0EC0100E010E089915B
:1020700060919A0470919B04DB011896ED91FC919C
:102080001997882331F01995892B89F30FEF1FEFEA
:10209000EECF8AE01995892B11F4C80102C08FEFA9
:1020A0009FEFDF91CF911F910F9108952F923F9253
:1020B0004F925F926F927F928F929F92AF92BF9258
:1020C000CF92DF92EF92FF920F931F93CF93DF9304
:1020D000CDB7DEB72C970FB6F894DEBF0FBECDBFDD
:1020E0007C016B018A01FC0117821682838181FFCA
:1020F000B0C1CE0101964C01F7019381F60193FD29
:10210000859193FF81916F01882309F49EC18532E7
:1021100039F493FD859193FF81916F01853221F40C
:10212000B70190E0C7D1E8CF512C312C20E020320C
:10213000A0F48B3269F030F4803259F0833269F4C4
:1021400020612CC08D3239F0803339F4216026C0F3
:102150002260246023C0286021C027FD27C030ED05
:10216000380F3A3078F426FF06C0FAE05F9E300D53
:102170001124532E13C08AE0389E300D1124332EC3
:1021800020620CC08E3221F426FD5FC1206406C09F
:102190008C3611F4206802C0883641F4F60193FDB4
:1021A000859193FF81916F018111C1CF982F9F7D00
:1021B0009554933028F40C5F1F4FFFE3F9830DC053
:1021C000833631F0833771F0833509F057C021C071
:1021D000F801808189830E5F1F4F44244394512C62
:1021E000540114C03801F2E06F0E711CF801A08098
:1021F000B18026FF03C0652D70E002C06FEF7FEF56
:10220000C5012C874CD12C0183012C852F77222EE0
:1022100016C03801F2E06F0E711CF801A080B18089
:1022200026FF03C0652D70E002C06FEF7FEFC50190
:102230002C872AD12C012C852068222E830123FC97
:1022400019C0832D90E048165906A0F4B70180E22A
:1022500090E030D13A94F5CFF50127FC859127FE27
:1022600081915F01B70190E025D131103A94F1E0FE
:102270004F1A51084114510479F7DEC0843611F029
:10228000893631F5F80127FF07C0608171818281AD
:1022900093810C5F1F4F08C060817181882777FD93
:1022A0008095982F0E5F1F4F2F76B22E97FF09C093
:1022B00090958095709561957F4F8F4F9F4F2068C7
:1022C000B22E2AE030E0A40127D1A82EA81843C0DE
:1022D000853729F42F7EB22E2AE030E025C0F22F78
:1022E000F97FBF2E8F36C1F018F4883579F0ADC074
:1022F000803719F0883721F0A8C02F2F2061B22E27
:10230000B4FE0DC08B2D8460B82E09C024FF0AC016
:102310009F2F9660B92E06C028E030E005C020E16E
:1023200030E002C020E132E0F801B7FE07C0608172
:102330007181828193810C5F1F4F06C06081718122
:1023400080E090E00E5F1F4FA401E6D0A82EA818F1
:10235000FB2DFF77BF2EB6FE0BC02B2D2E7FA514B5
:1023600050F4B4FE0AC0B2FC08C02B2D2E7E05C06E
:102370007A2C2B2D03C07A2C01C0752C24FF0DC0A4
:10238000FE01EA0DF11D8081803311F4297E09C020
:1023900022FF06C07394739404C0822F867809F0DC
:1023A000739423FD12C020FF06C05A2C731418F436
:1023B000530C5718732C731460F4B70180E290E04B
:1023C0002C8778D073942C85F6CF731410F43718BB
:1023D00001C0312C24FF11C0B70180E390E02C87AD
:1023E00069D02C8522FF16C021FF03C088E590E04C
:1023F00002C088E790E0B7010CC0822F867851F0C8
:1024000021FD02C080E201C08BE227FD8DE2B70111
:1024100090E050D0A51430F4B70180E390E04AD0AA
:102420005A94F8CFAA94F401EA0DF11D8081B70106
:1024300090E040D0A110F6CF332009F45DCEB70173
:1024400080E290E037D03A94F7CFF7018681978108
:1024500002C08FEF9FEF2C960FB6F894DEBF0FBE31
:10246000CDBFDF91CF911F910F91FF90EF90DF9043
:10247000CF90BF90AF909F908F907F906F905F9024
:102480004F903F902F900895FC010590615070404F
:102490000110D8F7809590958E0F9F1F0895FC012D
:1024A0006150704001900110D8F7809590958E0F83
:1024B0009F1F08950F931F93CF93DF93182F092F1A
:1024C000EB018B8181FD03C08FEF9FEF20C082FF66
:1024D00010C04E815F812C813D81421753077CF4EF
:1024E000E881F9819F012F5F3F4F39832883108353
:1024F00006C0E885F985812F1995892B29F72E814A
:102500003F812F5F3F4F3F832E83812F902FDF919D
:10251000CF911F910F910895FA01AA27283051F108
:10252000203181F1E8946F936E7F6E5F7F4F8F4F04
:102530009F4FAF4FB1E03ED0B4E03CD0670F781F63
:10254000891F9A1FA11D680F791F8A1F911DA11D48
:102550006A0F711D811D911DA11D20D009F4689481
:102560003F912AE0269F11243019305D3193DEF629
:10257000CF010895462F4770405D4193B3E00FD0DF
:10258000C9F7F6CF462F4F70405D4A3318F0495DCA
:1025900031FD4052419302D0A9F7EACFB4E0A695AD
:1025A0009795879577956795BA95C9F700976105CF
:1025B000710508959B01AC010A2E06945795479525
:1025C00037952795BA95C9F7620F731F841F951F1A
:0825D000A01D0895F894FFCF4F
:1025D80001000000030100000000000000000100ED
:1025E80001526573657474696E673A2025640A0040
:1025F800456E636F6465723A2025640A0052656D02
:102608006F76652062616C6C206265666F7265200A
:10261800726573657474696E67210047616D652022
:1026280074696D653A2025642E25642564730A0053
:102638000000000096076A073F0747075A0769071F
:1026480000000000560BD20CAB0AC40AB60A350BC0
:00000001FF
