:1000000009C1000038C1000036C1000034C1000041
:1000100032C1000030C100002EC100002CC1000020
:100020002AC1000028C1000026C1000024C1000030
:1000300022C1000020C100001EC100001CC1000040
:100040001AC1000054C5000016C1000014C1000010
:1000500012C1000010C100000EC100000C94420E3D
:100060000AC100000C941D0D0C94530D04C1000036
:1000700002C1000000C10000FEC00000FCC0000082
:1000800063C50000F8C00000F6C0000044C70000CF
:10009000F2C00000F0C00000EEC000000C949A090D
:1000A000EAC00000E8C000007CC50000E4C0000019
:1000B000E2C00000E0C00000DEC000009FC50000FC
:1000C000DAC00000D8C00000D6C00000D4C00000D4
:1000D000D2C00000D0C00000CEC00000CCC00000E4
:1000E000CAC00000050B080BF70AFB0A010B3F0B07
:1000F0000C0B100B160B1A0B1E0B240B280B2C0BC6
:100100003F0B320B360B3A0B00000A0B02090C0DA9
:100110000E080703040100000000000000000000BA
:1001200000000000000000000000000000000000CF
:10013000000000001211100000000000000000008C
:1001400000000000000000000000000000000102AC
:1001500010202008081020401020408002010201D9
:100160000804020101020408102040808040201091
:1001700008040201800402018040201008040201EA
:100180000804020101020408102040800102040852
:10019000102040800505050507050808080802022B
:1001A00002020A0A08080404040401010101010111
:1001B00001010303030303030303040707070C0CF4
:1001C0000C0C0C0C0C0C02020202060606060606BB
:1001D00006060B0B0B0B0B0B0B0B00002200250074
:1001E00028002B002E003100340002010000050120
:1001F00008010B0100002100240027002A002D0027
:100200003000330001010000040107010A01D0029F
:10021000FF08850D11241FBECFEFD1E2DEBFCDBF99
:1002200000E00CBF12E0A0E0B2E0E4E8F7E200E09A
:100230000BBF02C007900D92AC33B107D9F724E091
:10024000ACE3B2E001C01D92A936B207E1F712E0BB
:10025000C4E1D2E000E006C022970109FE010BBF15
:100260000E940811CE30D10780E00807A9F70E944C
:10027000C90D0C94C013C4CEE091BD03F091BE0330
:100280000190F081E02D682F8DEB93E0199580E0CF
:1002900090E0089526E040E855E260E070E08DEBE4
:1002A00093E00E94BD0C8CE391E0909359028093FF
:1002B000580210925B0210925A0282E0809353021D
:1002C00010925D0210925C0280E592E090936604C9
:1002D0008093650440E157E260E070E088EF92E0CF
:1002E000A8D680E060D124E338E044E853E063E03E
:1002F00070E08DE492E0CBD493D261E084E00E9480
:10030000400B8BE492E0F9C2BF92CF92DF92EF9262
:10031000FF920F931F93CF93DF93CDB7DEB72A974A
:100320000FB6F894DEBF0FBECDBFCE010196A9D1A6
:100330002A818981813041F08230C9F4DE0113962F
:1003400083E492E0FC010CC0DE0113968CE392E0A2
:10035000FC013E2F381B321750F43D913193F9CFF9
:100360003E2F381B321718F43D913193F9CF80910D
:100370004602813089F048F0823059F1843009F02A
:10038000FFC081E08093460207C08091430288232A
:1003900009F4F6C084E0B7C020914002822F99276B
:1003A00087FD90959F932F938FE092E09F938F937B
:1003B0000E941B110F900F900F900F90809145029B
:1003C000882309F4DDC0809140028111D9C082E008
:1003D0009AC02FEF3FEFA90166E973E088EF92E042
:1003E00037D660913C02772767FD7095872F972F4E
:1003F0000E94890F905820E030E048EC52E40E94BF
:10040000EE0E20E030E044EB52E40E9415100E9412
:10041000560F665A7F4F8DE492E01AD580914402C0
:10042000882319F08130D1F060C020913D0230E87E
:10043000121654F42303C001112464E670E00E94F4
:10044000A710862F61E050C02302C001112464E68A
:1004500070E00E94A710862F60E046C080914202A3
:10046000819523E2829FC001112490934A028093D8
:10047000490205D220914B0230914C02280F391FBE
:1004800030934C0220934B02E0904902F0904A02D4
:10049000C701821B930BE0914702F0914802E80FDD
:1004A000F91FF0934802E093470208E210E0B80118
:1004B0000E94A7106B01CF0160E777E10E94A710AF
:1004C000AB01C601860F971F1816190624F460E0C9
:1004D000842F8C0D09C0C9018E199F09B8010E9493
:1004E000A710862F61E0840FE9D18091400281112D
:1004F00002C060E001C061E084E00E94790B00D19D
:10050000C29720F483E0809346023AC0C0905E0216
:10051000D0905F02E0906002F0906102C701B601E6
:1005200020E737E140E050E00E94BA10B22E20935D
:100530000602C701B60124E630E040E050E00E9428
:10054000BA10F62ECA01B9012CE330E040E050E0C9
:100550000E94BA10362F60930702F09208020091B1
:100560000402109105022B2D4F2D5091090260912C
:100570000A0270910B0280910C0290910D022FD013
:100580002A960FB6F894DEBF0FBECDBFDF91CF9194
:100590001F910F91FF90EF90DF90CF90BF90089543
:1005A0008DE492E058C3CF93DF931F92CDB7DEB7AF
:1005B0008983C9D12CD18981482F60EE8FE00CD17D
:1005C00040E660E680E608D140E064E080E604D1E1
:1005D00040E06FEF8BE20F90DF91CF91FDC0CF92A3
:1005E000DF92EF92FF920F931F93CF93DF93CDB7DC
:1005F000DEB72A970FB6F894DEBF0FBECDBF0983D2
:10060000C12E1A832B833C834D835E836F8378874F
:1006100089879A8780E39ED083FDFCCF61E3802F9A
:10062000869586958695ABD062E3802F8295880F5C
:10063000807EA5D065E38C2DA2D07E0183E0E80EFC
:10064000F11C00E010E0D12C0C151D054CF466E304
:10065000600FF70181917F0192D00F5F1F4FF4CFA0
:1006600080E0A2D02A960FB6F894DEBF0FBECDBFB1
:10067000DF91CF911F910F91FF90EF90DF90CF907E
:100680000895EF92FF920F931F93CF93DF93EC01A6
:100690008AE0FE0111928A95E9F78CE25BD080FF37
:1006A00027C082E657D0182F81E654D0912F92951B
:1006B00096959770F8E08F9F900D1124988385E6AA
:1006C00049D08F70E82E89838E010E5F1F4FF12C69
:1006D000FE1441F086E68F0D3DD0F80181938F0125
:1006E000F394F6CF1092620240E061E08CE274D0A5
:1006F000CE01DF91CF911F910F91FF90EF90089560
:100700001F93CF93DF931AE0C0E0D0E086E340D799
:10071000C80FD91F1150D1F7CE016AE070E00E94D6
:100720009310CB01DF91CF911F91089580915E02CC
:1007300090915F02A0916002B09161020196A11DAB
:10074000B11D80935E0290935F02A0936002B0930C
:10075000610208951F93CF93DF931F92CDB7DEB749
:10076000182F02D183E0F7D0812FF5D0F9D08983FB
:10077000FDD089810F90DF91CF911F9108951F9334
:10078000CF93DF931F92CDB7DEB7182F6983ECD0DC
:1007900082E0E1D06981862FDED0812FDCD00F90FE
:1007A000DF91CF911F91E2C0CF93DF931F92CDB71E
:1007B000DEB78983D9D08981813031F0823031F040
:1007C000811106C081E803C082E801C084E8C3D07B
:1007D0000F90DF91CF91CAC01F93CF93DF931F92E9
:1007E0001F92CDB7DEB7182F4A836983BDD085E04D
:1007F000B2D0812FB0D06981862FADD04A81842FAD
:10080000AAD00F900F90DF91CF911F91AFC0ACD0C5
:1008100080ECA1D0ABD085E08A95F1F70000089577
:100820008DEF92E0C4D480B3886F80BB1092070133
:1008300081B3806D81BB8AE68A95F1F700C0089587
:1008400090E09C01220F331F2A7A95958795857534
:10085000282B30E0C901880F991F880F991F8C7CC5
:1008600035952795359527952373822B8295089585
:100870008E988AE68A95F1F700C08E9A0895CF93F4
:10088000DF938F988D988AE68A95F1F700C0809162
:100890000601D6DFC82FD0E0DC2FCC278D9A8AE660
:1008A0008A95F1F700C080910601CADFC80FD11DFB
:1008B000DFDF8F9ACE01DF91CF910895CF93C82FBC
:1008C000662311F08B9A01C08B9868E270E08DEF7F
:1008D00092E080D4E091FD02F091FE020190F0815F
:1008E000E02D60E08DEF92E019956C2F8DEF92E096
:1008F00020D48DEF92E0CF9180C4CF93DF93EC01B1
:1009000061E085E5DBDF8FE39CE90197F1F700C04B
:100910000000B5DF97FDFDCF60E080E0CFDFA8DF0E
:1009200088819981843991415CF460E085E5C6DF76
:10093000A6DF28813981280F391F39832883F0CF1A
:10094000DF91CF91089584B1876084B923988CB5E5
:1009500082658CBD08958EBD0DB407FEFDCF089550
:1009600080E0F9DF8EB5089528980895289A0895B3
:10097000CF92DF92EF92FF920F931F93CF93DF936B
:100980006C018B017A01EC01CC59DD4F888187FF26
:1009900004C0FB011182108223C02CE02C9DC001F9
:1009A0002D9D900D11242881AC01420F511D27FD72
:1009B0005A952091630230E0421753078CF4288146
:1009C000AC01420F511D27FD5A959A01FA01EE0F15
:1009D000FF1FE20FF31FE859FD4F208126FD19C0CC
:1009E00088818F5F88838CE08C9D90018D9D300D78
:1009F00011248881A901480F511D87FD5A958091C6
:100A0000630290E048175907ACF488818C3034F1C8
:100A100011C02881820F911D27FD9A95FC01EE0FD0
:100A2000FF1FE80FF91FE859FD4F808160E08F73C9
:100A300060D6D6CFF80180819181049680349C499C
:100A400018F480E49CE904C0F80180819181049647
:100A5000F701918380838FEF888340C0F801808104
:100A600091814881B901640F711D47FD7A95AB01F1
:100A7000FB01EE0FFF1FE40FF51FE859FD4F418109
:100A80005281840F951FF701918380838881A9018A
:100A9000480F511D87FD5A95FA01EE0FFF1FE40F15
:100AA000F51FE859FD4F808186FF18C08881280F07
:100AB000311D87FD3A95F901EE0FFF1FE20FF31F7D
:100AC000E859FD4F808161E08F73DF91CF911F91D5
:100AD0000F91FF90EF90DF90CF900BC6DF91CF91F9
:100AE0001F910F91FF90EF90DF90CF9008951F928C
:100AF0000F920FB60F9211240BB60F922F933F93C4
:100B00004F935F936F937F938F939F93AF93BF9315
:100B1000EF93FF9348E850E064E870E081E090E0F4
:100B200027DFFF91EF91BF91AF919F918F917F91BF
:100B30006F915F914F913F912F910F900BBE0F904E
:100B40000FBE0F901F9018951F920F920FB60F9225
:100B500011240BB60F922F933F934F935F936F9394
:100B60007F938F939F93AF93BF93EF93FF9348E946
:100B700050E064E970E082E090E0FADEFF91EF91EE
:100B8000BF91AF919F918F917F916F915F914F91A5
:100B90003F912F910F900BBE0F900FBE0F901F90A3
:100BA00018951F920F920FB60F9211240BB60F9249
:100BB0002F933F934F935F936F937F938F939F9365
:100BC000AF93BF93EF93FF9348EA50E064EA70E07D
:100BD00083E090E0CDDEFF91EF91BF91AF919F91C7
:100BE0008F917F916F915F914F913F912F910F90D6
:100BF0000BBE0F900FBE0F901F9018951F920F9273
:100C00000FB60F9211240BB60F922F933F934F9371
:100C10005F936F937F938F939F93AF93BF93EF9364
:100C2000FF9348E251E064E271E080E090E0A0DEF2
:100C3000FF91EF91BF91AF919F918F917F916F91B4
:100C40005F914F913F912F910F900BBE0F900FBE70
:100C50000F901F901895209163022033A0F431E08B
:100C6000320F30936302FC012083822F90E0FC015D
:100C7000EE0FFF1FE80FF91FE859FD4F88EB9BE0CF
:100C80009283818308952FEFFC0120830895DF92E2
:100C9000EF92FF920F931F93CF93DF93EC01D62E29
:100CA0007A0189018881803308F067C061E08D2D69
:100CB000E7D48881A82FB0E0FD01EE0FFF1FEA0FF7
:100CC000FB1FE859FD4F2D2D2F739081907C922BA7
:100CD000908360E272E06E197F0977FF02C06D5F5A
:100CE0007F4F7595679575956795698340E659E0DF
:100CF000401B510B57FF02C04D5F5F4F5595479505
:100D0000559547954A836CE00E9487109CE0899F27
:100D1000B001112420E030E0A901460F571FFA016D
:100D2000EE0FFF1FE40FF51FE859FD4F908196FD70
:100D300018C02F5F3F4F2C30310571F790E08130A4
:100D4000910521F51092800082E08093810010923D
:100D5000850010928400B19A80916F008260809328
:100D60006F00888190E0FC01EE0FFF1FE80FF91F74
:100D7000E859FD4F8081806480838881DF91CF9125
:100D80001F910F91FF90EF90DF90089582309105B1
:100D900069F41092900082E0809391001092950087
:100DA0001092940088BB80937100DBCF8330910553
:100DB00069F41092A00082E08093A1001092A50037
:100DC0001092A40089BB80937200CBCF892B49F687
:100DD0001092200182E0809321011092250110924F
:100DE00024018ABB80937300BCCFFC0180818033D7
:100DF00070F5918128E830E0291B310997FD339582
:100E0000220F331F220F331F621773077CF092816A
:100E100028E532E0291B310997FD3395220F331F56
:100E2000220F331F621773070CF49B012250310904
:100E3000220F331F4FB7F89490E0FC01EE0FFF1F15
:100E4000E80FF91FE859FD4F328321834FBF089502
:100E50004F925F926F927F92AF92BF92CF92DF924A
:100E6000EF92FF920F931F93CF93DF93EC016032C9
:100E700082E078070CF03FC077FD06C0653B710546
:100E80002CF064EB70E002C060E070E0898128E83B
:100E900030E0281B310987FD3395220F331F220FC5
:100EA000331F5901CC24B7FCC094DC2C882777FD74
:100EB0008095982F2A8148E552E0421B510927FD71
:100EC0005395440F551F440F551F2A01662457FCA4
:100ED0006094762C7F926F925F924F9214EBE12E8A
:100EE000F12C00E010E020E030E0A90186D60F9060
:100EF0000F900F900F90CE01DF91CF911F910F9126
:100F0000FF90EF90DF90CF90BF90AF907F906F9069
:100F10005F904F906ACF1F920F920FB60F921124DD
:100F20000BB60F922F933F934F935F936F937F93E3
:100F30008F939F93AF93BF93EF93FF93E091FB0247
:100F4000F091FC021995FF91EF91BF91AF919F91A4
:100F50008F917F916F915F914F913F912F910F9062
:100F60000BBE0F900FBE0F901F901895FC01A3E0D1
:100F7000440F551F661F771FAA95D1F741155105DC
:100F800081E06807710514F481E00EC033E07595C7
:100F90006795579547953A95D1F74115510581E0E9
:100FA000680771051CF482E0828331C023E07595E7
:100FB0006795579547952A95D1F74115510581E0D9
:100FC0006807710514F483E0EFCF92E0759567959B
:100FD000579547959A95D1F74115510581E06807D6
:100FE000710514F484E0E0CF82E07595679557951C
:100FF00047958A95D1F785E082834115510581E0B7
:101000006807710524F04FEF5FEF60E070E05183F7
:101010004083509397004093960080919100887F81
:1010200080939100809191009281892B809391000F
:1010300008951092900020E12093910097CFE1E96C
:10104000F0E02081DC0112968C91282B20830895FA
:101050000F931F93CF93DF93EC018B01BA01A9018A
:1010600014161506160617060CF480DF1C830B8376
:1010700081E0809371007894CE01DF91CF911F9130
:101080000F91DDCF80912D0390E020912E03821BE4
:101090009109089520912E0380912D03281750F473
:1010A000E22FF0E0E15DFC4F808190E02F5F209324
:1010B0002E0308958FEF9FEF0895E0912E03809106
:1010C0002D03E81730F4F0E0E15DFC4F808190E003
:1010D00008958FEF9FEF08950895CF92DF92EF92DA
:1010E000FF920F931F93CF93DF937C01CB018A0173
:1010F00020910903222389F0EB016B01C40ED51E58
:10110000CC15DD0561F06991D701ED91FC9101905D
:10111000F081E02DC7011995F3CF642FE2D0C8010B
:10112000DF91CF911F910F91FF90EF90DF90CF90C3
:101130000895CF93DF931F92CDB7DEB769832091D7
:1011400009032223D1F020910A03203240F021E04C
:1011500030E0FC013383228380E090E014C0809172
:101160000B03E82FF0E0E45FFC4F998190838F5FE1
:1011700080930B0380930A0304C061E0CE010196C3
:10118000B0D081E090E00F90DF91CF910895FC0105
:101190001382128248EE53E060E070E0448355838E
:1011A0006683778380E292E0918380830895109232
:1011B0002E0310922D0310920B0310920A0322C0EB
:1011C00081E08093090360932C0310920B0310922B
:1011D0000A030895F5CF0F93062F21E040910A03EB
:1011E0006CE073E080912C0329D010920B031092D5
:1011F0000A03109209030F91089561E0ECCF8DEF7F
:1012000092E0C5CF1092BC0381E08093BA031092A4
:10121000B90361E084E16DD261E085E16AD2E9EB76
:10122000F0E080818E7F808380818D7F808388E461
:101230008093B80085E48093BC0008950F934132F9
:1012400008F046C09091BC039111FCCF92E09093BE
:10125000BC030093BA039FEF90934F031092940343
:1012600040939303FB0165E973E0DB019A2F961B22
:10127000941718F491919D93F9CF1092BB0390911C
:10128000BB03880F892B8093BB038091B903813006
:1012900041F41092B9038091BB038093BB0085ECAD
:1012A00001C085EE8093BC00222321F08091BC0315
:1012B0008230E1F380914F038F3F61F080914F03C3
:1012C000803251F080914F03803341F483E007C0B6
:1012D00081E005C080E003C082E001C084E00F919E
:1012E0000895613298F42091BC03243089F460930E
:1012F0007103FC0183E793E0DC012A2F281B2617EA
:1013000018F421912D93F9CF80E0089581E008959C
:1013100082E0089585ED8093BC008091BC0084FD3F
:10132000FCCF1092BC03089585EC8093BC00109212
:10133000BC0308951F920F920FB60F9211240BB6A3
:101340000F922F933F934F935F936F937F938F935E
:101350009F93AF93BF93EF93FF938091B900887FE2
:10136000803609F49CC068F5883209F45BC090F4BB
:10137000803109F454C038F4882309F4F3C088306C
:1013800009F44DC0F2C0883109F44CC0803209F430
:101390005DC0EBC0803409F468C048F4803309F4C0
:1013A00055C0883309F0E1C080934F03A7C0803552
:1013B00009F44FC0883509F45DC0883409F0D5C000
:1013C000D3C0883909F4C4C0A8F4883709F467C0C9
:1013D00038F4883609F463C0803709F460C0C5C0AA
:1013E000883809F4B5C0803909F45FC0803809F045
:1013F000BCC05BC0803B09F483C038F4803A09F478
:1014000066C0883A09F47CC0B0C0803C09F4A4C02E
:10141000883C09F4A1C0883B09F487C0A6C080912C
:10142000BB0310C09091940380919303981770F5BB
:10143000E091940381E08E0F80939403F0E0EB56EB
:10144000FC4F80818093BB0085EC83C080934F0369
:101450008BC0E091940381E08E0F80939403809180
:10146000BB00F0E0EB56FC4F808390919403809199
:1014700093036BC0E091940381E08E0F80939403FB
:101480008091BB00F0E0EB56FC4F80838091BA0363
:1014900081116AC081E08093B90384EA5EC083E071
:1014A0008093BC0310925003CFCF809150038032C1
:1014B00008F04EC0E091500381E08E0F80935003FE
:1014C0008091BB00F0E0EF5AFC4F8083BDCF80914C
:1014D0005003803230F4E0915003F0E0EF5AFC4FBB
:1014E000108218DF6091500370E0E091B503F09135
:1014F000B60381E593E019951092500315DF35C0CE
:1015000084E08093BC031092720310927103E09107
:10151000B703F091B803199580917103811105C04B
:1015200081E08093710310927303E091720381E074
:101530008E0F80937203F0E0ED58FC4F8081809312
:10154000BB009091720380917103981708F47CCFCF
:1015500085E88093BC0009C085EC8093BC001092A4
:10156000BC0303C010924F03D5DEFF91EF91BF91F2
:10157000AF919F918F917F916F915F914F913F912B
:101580002F910F900BBE0F900FBE0F901F901895CC
:10159000863308F0865320917B00982F9870277F20
:1015A000922B90937B00877020910E0290E4299FEC
:1015B00090011124822B80937C0080917A008064BA
:1015C00080937A0080917A0086FDFCCF809178002C
:1015D0002091790090E0922B089590E0FC013197E2
:1015E000E231F10508F04BC0EE58FF4F01C6809183
:1015F00080008F7703C0809180008F7D8093800072
:10160000089580918000877FF9CF84B58F7702C0DD
:1016100084B58F7D84BD08958091B0008F7703C01D
:101620008091B0008F7D8093B000089580919000EC
:101630008F7707C0809190008F7D03C080919000CC
:10164000877F8093900008958091A0008F7707C0D6
:101650008091A0008F7D03C08091A000877F809340
:10166000A0000895809120018F7707C0809120010C
:101670008F7D03C080912001877F80932001089592
:10168000CF93DF9390E0FC01E25BFE4F2491FC01DD
:10169000EC56FE4F8491882349F190E0880F991F02
:1016A000FC01EC50FE4FA591B49186529E4FFC0177
:1016B000C591D4919FB7611108C0F8948C91209581
:1016C00082238C93888182230AC0623051F4F8947B
:1016D0008C91322F309583238C938881822B888341
:1016E00004C0F8948C91822B8C939FBFDF91CF9193
:1016F00008950F931F93CF93DF931F92CDB7DEB75B
:10170000282F30E0F901E85FFE4F8491F901E25B98
:10171000FE4F1491F901EC56FE4F04910023C1F0E5
:10172000882319F0698359DF6981E02FF0E0EE0F1B
:10173000FF1FE652FE4FA591B4919FB7F8948C918C
:10174000611103C01095812301C0812B8C939FBF31
:101750000F90DF91CF911F910F910895FC01818D22
:10176000228D90E0805C9F4F821B91098F73992797
:101770000895FC01918D828D981731F0828DE80FCC
:10178000F11D858D90E008958FEF9FEF0895FC0186
:10179000918D828D981761F0828DDF01A80FB11DA8
:1017A0005D968C91928D9F5F9F73928F90E00895CC
:1017B0008FEF9FEF08958CE79DE0892B39F080E053
:1017C00090E0892B19F098D1811125C080E090E03C
:1017D000892B41F080E090E0892B21F00E940000ED
:1017E00081111CC080E090E0892B41F080E090E006
:1017F000892B21F00E940000811113C080E090E04D
:10180000892BA1F080E090E0892B81F00E940000FC
:1018100081110AC008950E940000D8CF0E940000E4
:10182000E1CF0E940000EACF0C9400000895FC0173
:10183000848DDF01A80FB11DA35ABF4F2C91848D59
:1018400090E001968F739927848FA689B7892C938E
:10185000A089B1898C9180648C93938D848D981329
:1018600006C00288F389E02D80818F7D80830895F2
:10187000CF93DF93EC01888D8823C1F0EA89FB893F
:10188000808185FD05C0A889B9898C9186FD0EC02F
:101890000FB607FCF5CF808185FFF2CFA889B98903
:1018A0008C9185FFEDCFCE01C2DFE8CFDF91CF91E4
:1018B0000895CF92DF92FF920F931F93CF93DF9300
:1018C0001F92CDB7DEB76C0181E0D60158968C939C
:1018D00058975B969C915B975C968C915C9798135C
:1018E00007C05096ED91FC915197808185FD2DC0E8
:1018F000F601038D10E00F5F1F4F0F731127F02EBD
:10190000F601848DF81210C00FB607FCF9CFD6018E
:101910005096ED91FC915197808185FFF1CFC601E2
:10192000698385DF6981ECCF838DE80FF11DE35A70
:10193000FF4F6083D6015B960C935B975296ED91B7
:10194000FC915397808180620CC0D6015696ED9130
:10195000FC91579760835096ED91FC91519780814F
:101960008064808381E090E00F90DF91CF911F91A0
:101970000F91FF90DF90CF900895BF92CF92DF92AA
:10198000EF92FF92CF93DF93EC016A017B01B22EBD
:10199000E889F98982E08083411581EE5807610565
:1019A000710599F060E079E08DE390E0A701960180
:1019B000E1D3215031094109510956954795379591
:1019C0002795211580E1380790F0E889F989108280
:1019D00060E874E88EE190E0A7019601CBD3215036
:1019E0003109410951095695479537952795EC8559
:1019F000FD853083EE85FF852083188EEC89FD8977
:101A0000B082EA89FB89808180618083EA89FB89D1
:101A1000808188608083EA89FB89808180688083F7
:101A2000EA89FB8980818F7D8083DF91CF91FF9050
:101A3000EF90DF90CF90BF9008951F920F920FB656
:101A40000F9211240BB60F922F938F939F93EF93C6
:101A5000FF93E091CD03F091CE038081E091D30319
:101A6000F091D40382FD12C090818091D6038F5FE4
:101A70008F732091D703821751F0E091D603F0E0E5
:101A8000E354FC4F958F8093D60301C08081FF9172
:101A9000EF919F918F912F910F900BBE0F900FBEE2
:101AA0000F901F9018951F920F920FB60F9211244E
:101AB0000BB60F922F933F934F935F936F937F9348
:101AC0008F939F93AF93BF93EF93FF938DEB93E02F
:101AD000AEDEFF91EF91BF91AF919F918F917F917A
:101AE0006F915F914F913F912F910F900BBE0F908F
:101AF0000FBE0F901F9018958DEB93E02FDE21E025
:101B0000892B09F420E0822F08951092C0031092CF
:101B1000BF0388EE93E0A0E0B0E08093C103909310
:101B2000C203A093C303B093C40380E392E09093F5
:101B3000BE038093BD0385EC90E09093CA0380932D
:101B4000C90384EC90E09093CC038093CB0380ECAA
:101B500090E09093CE038093CD0381EC90E090933E
:101B6000D0038093CF0382EC90E09093D2038093D4
:101B7000D10386EC90E09093D4038093D30310922A
:101B8000D6031092D7031092D8031092D903089568
:101B90000895C2D0FDDF0E944A01CBEDDBE00E9438
:101BA00084012097E1F307DEFACFCF92DF92EF9224
:101BB000FF920F931F93CF93DF936C017A01EB0198
:101BC000E60EF71E00E010E0CE15DF0561F069912A
:101BD000D601ED91FC910190F081E02DC60119959F
:101BE000080F191FF1CFC801DF91CF911F910F91FD
:101BF000FF90EF90DF90CF9008954F925F926F9299
:101C00007F92AF92BF92CF92DF92EF92FF920F93AB
:101C10001F93CF93DF93CDB7DEB729013A01621B43
:101C2000730B840B950B2A893B894C895D892A1992
:101C30003B094C095D092A8B3B8B4C8B5D8B9B01CF
:101C4000AC016A897B898C899D8952D2E418F50898
:101C500006091709A8019701AFD22A0D3B1D4C1D9B
:101C60005D1DCA01B901DF91CF911F910F91FF90C6
:101C7000EF90DF90CF90BF90AF907F906F905F908C
:101C80004F9008951F920F920FB60F9211242F9329
:101C90003F938F939F93AF93BF9380915B049091F9
:101CA0005C04A0915D04B0915E0430915A0423E07D
:101CB000230F2D3720F40196A11DB11D05C026E884
:101CC000230F0296A11DB11D20935A0480935B043B
:101CD00090935C04A0935D04B0935E0480915F04D4
:101CE00090916004A0916104B09162040196A11DDD
:101CF000B11D80935F0490936004A0936104B0933E
:101D00006204BF91AF919F918F913F912F910F905E
:101D10000FBE0F901F901895789484B5826084BD93
:101D200084B5816084BD85B5826085BD85B58160DF
:101D300085BDEEE6F0E0808181608083E1E8F0E03F
:101D40001082808182608083808181608083E0E86E
:101D5000F0E0808181608083E1EBF0E0808184604D
:101D60008083E0EBF0E0808181608083E1E9F0E056
:101D7000808182608083808181608083E0E9F0E0FF
:101D8000808181608083E1EAF0E0808182608083ED
:101D9000808181608083E0EAF0E0808181608083DF
:101DA000E1E2F1E0808182608083808181608083D4
:101DB000E0E2F1E0808181608083EAE7F0E0808109
:101DC0008460808380818260808380818160808361
:101DD0008081806880831092C10008950CD0EBC090
:101DE000E3D040F0DAD030F021F45F3F19F0CCC0FE
:101DF000511115C1CFC0F0D098F39923C9F35523E1
:101E0000B1F3951B550BBB27AA27621773078407ED
:101E100038F09F5F5F4F220F331F441FAA1FA9F3A3
:101E200033D00E2E3AF0E0E830D091505040E69595
:101E3000001CCAF729D0FE2F27D0660F771F881FF6
:101E4000BB1F261737074807AB07B0E809F0BB0BE5
:101E5000802DBF01FF2793585F4F2AF09E3F510509
:101E600068F092C0DCC05F3FECF3983EDCF38695EF
:101E700077956795B795F7959F5FC9F7880F911D7F
:101E80009695879597F90895E1E0660F771F881F6B
:101E9000BB1F621773078407BA0720F0621B730B1E
:101EA000840BBA0BEE1F88F7E095089504D0689470
:101EB000B111B5C0089598D088F09F5790F0B92F10
:101EC0009927B751A0F0D1F0660F771F881F991F8F
:101ED0001AF0BA95C9F712C0B13081F09FD0B1E0C5
:101EE00008959CC0672F782F8827B85F39F0B93FD5
:101EF000CCF3869577956795B395D9F73EF4909591
:101F00008095709561957F4F8F4F9F4F0895E8940E
:101F100009C097FB3EF490958095709561957F4F31
:101F20008F4F9F4F9923A9F0F92F96E9BB279395DF
:101F3000F695879577956795B795F111F8CFFAF4EF
:101F4000BB0F11F460FF1BC06F5F7F4F8F4F9F4F20
:101F500016C0882311F096E911C0772321F09EE87E
:101F6000872F762F05C0662371F096E8862F70E0E4
:101F700060E02AF09A95660F771F881FDAF7880FBE
:101F80009695879597F9089597F99F6780E870E08F
:101F900060E008959FEF80EC089500240A941616DF
:101FA000170618060906089500240A941216130647
:101FB000140605060895092E0394000C11F48823D5
:101FC00052F0BB0F40F4BF2B11F460FF04C06F5FF1
:101FD0007F4F8F4F9F4F089557FD9058440F551FC7
:101FE00059F05F3F71F04795880F97FB991F61F09B
:101FF0009F3F79F087950895121613061406551F12
:10200000F2CF4695F1DF08C0161617061806991F7D
:10201000F1CF86957105610508940895E894BB2772
:1020200066277727CB0197F908950BD0C4CFB5DF8A
:1020300028F0BADF18F0952309F0A6CFABCF112412
:10204000EECFCADFA0F3959FD1F3950F50E0551F57
:10205000629FF001729FBB27F00DB11D639FAA27FD
:10206000F00DB11DAA1F649F6627B00DA11D661F4C
:10207000829F2227B00DA11D621F739FB00DA11D6D
:10208000621F839FA00D611D221F749F3327A00D27
:10209000611D231F849F600D211D822F762F6A2FC3
:1020A00011249F5750408AF0E1F088234AF0EE0F48
:1020B000FF1FBB1F661F771F881F91505040A9F755
:1020C0009E3F510570F060CFAACF5F3FECF3983E82
:1020D000DCF3869577956795B795F795E7959F5FBC
:1020E000C1F7FE2B880F911D9695879597F9089556
:1020F000DB018F939F9382D0BF91AF91A29F800D00
:10210000911DA39F900DB29F900D11240895991BCE
:1021100079E004C0991F961708F0961B881F7A95DE
:10212000C9F780950895AA1BBB1B51E107C0AA1FE0
:10213000BB1FA617B70710F0A61BB70B881F991F68
:102140005A95A9F780959095BC01CD01089597FB0C
:10215000072E16F4009406D077FD08D0E4DF07FCC4
:1021600005D03EF4909581959F4F089570956195A7
:102170007F4F0895A1E21A2EAA1BBB1BFD010DC0C3
:10218000AA1FBB1FEE1FFF1FA217B307E407F50727
:1021900020F0A21BB30BE40BF50B661F771F881F03
:1021A000991F1A9469F760957095809590959B0199
:1021B000AC01BD01CF010895052E97FB16F40094E4
:1021C0000FD057FD05D0D6DF07FC02D046F408C07B
:1021D00050954095309521953F4F4F4F5F4F089553
:1021E00090958095709561957F4F8F4F9F4F089583
:1021F000EE0FFF1F0590F491E02D19940DD0A59FCF
:10220000900DB49F900DA49F800D911D11240895F1
:102210000790F691E02D1994A29FB001B39FC001E1
:10222000A39F700D811D1124911DB29F700D811D02
:102230001124911D0895CF93DF93CDB7DEB7FE0132
:10224000369661917191AF01809165049091660419
:1022500003D0DF91CF9108952F923F924F925F92DA
:102260006F927F928F929F92AF92BF92CF92DF92A6
:10227000EF92FF920F931F93CF93DF93CDB7DEB70B
:102280002C970FB6F894DEBF0FBECDBF7C016B015B
:102290008A01FC0117821682838181FFB0C1CE01C1
:1022A00001964C01F7019381F60193FD859193FF0F
:1022B00081916F01882309F49EC1853239F493FD21
:1022C000859193FF81916F01853221F4B70190E0F0
:1022D000C7D1E8CF512C312C20E02032A0F48B3232
:1022E00069F030F4803259F0833269F420612CC0F7
:1022F0008D3239F0803339F4216026C022602460A9
:1023000023C0286021C027FD27C030ED380F3A30A8
:1023100078F426FF06C0FAE05F9E300D1124532E9C
:1023200013C08AE0389E300D1124332E20620CC079
:102330008E3221F426FD5FC1206406C08C3611F474
:10234000206802C0883641F4F60193FD859193FF21
:1023500081916F018111C1CF982F9F7D955493304A
:1023600028F40C5F1F4FFFE3F9830DC0833631F073
:10237000833771F0833509F057C021C0F80180819F
:1023800089830E5F1F4F44244394512C540114C081
:102390003801F2E06F0E711CF801A080B18026FFB9
:1023A00003C0652D70E002C06FEF7FEFC5012C8781
:1023B0004CD12C0183012C852F77222E16C0380199
:1023C000F2E06F0E711CF801A080B18026FF03C0FF
:1023D000652D70E002C06FEF7FEFC5012C872AD119
:1023E0002C012C852068222E830123FC19C0832D0B
:1023F00090E048165906A0F4B70180E290E030D191
:102400003A94F5CFF50127FC859127FE81915F0174
:10241000B70190E025D131103A94F1E04F1A5108FC
:102420004114510479F7DEC0843611F0893631F554
:10243000F80127FF07C060817181828193810C5F61
:102440001F4F08C060817181882777FD8095982F84
:102450000E5F1F4F2F76B22E97FF09C09095809583
:10246000709561957F4F8F4F9F4F2068B22E2AE065
:1024700030E0A40127D1A82EA81843C0853729F43D
:102480002F7EB22E2AE030E025C0F22FF97FBF2E3A
:102490008F36C1F018F4883579F0ADC0803719F067
:1024A000883721F0A8C02F2F2061B22EB4FE0DC0B6
:1024B0008B2D8460B82E09C024FF0AC09F2F966020
:1024C000B92E06C028E030E005C020E130E002C0AF
:1024D00020E132E0F801B7FE07C06081718182819E
:1024E00093810C5F1F4F06C06081718180E090E096
:1024F0000E5F1F4FA401E6D0A82EA818FB2DFF7772
:10250000BF2EB6FE0BC02B2D2E7FA51450F4B4FEAB
:102510000AC0B2FC08C02B2D2E7E05C07A2C2B2DB4
:1025200003C07A2C01C0752C24FF0DC0FE01EA0DFA
:10253000F11D8081803311F4297E09C022FF06C07D
:102540007394739404C0822F867809F0739423FDEA
:1025500012C020FF06C05A2C731418F4530C5718DD
:10256000732C731460F4B70180E290E02C8778D06C
:1025700073942C85F6CF731410F4371801C0312CE6
:1025800024FF11C0B70180E390E02C8769D02C852F
:1025900022FF16C021FF03C088E590E002C088E753
:1025A00090E0B7010CC0822F867851F021FD02C067
:1025B00080E201C08BE227FD8DE2B70190E050D0B0
:1025C000A51430F4B70180E390E04AD05A94F8CFD4
:1025D000AA94F401EA0DF11D8081B70190E040D08A
:1025E000A110F6CF332009F45DCEB70180E290E070
:1025F00037D03A94F7CFF7018681978102C08FEFE9
:102600009FEF2C960FB6F894DEBF0FBECDBFDF91C3
:10261000CF911F910F91FF90EF90DF90CF90BF90DF
:10262000AF909F908F907F906F905F904F903F9072
:102630002F900895FC010590615070400110D8F76B
:10264000809590958E0F9F1F0895FC0161507040FA
:1026500001900110D8F7809590958E0F9F1F0895D7
:102660000F931F93CF93DF93182F092FEB018B81CB
:1026700081FD03C08FEF9FEF20C082FF10C04E810D
:102680005F812C813D81421753077CF4E881F981F9
:102690009F012F5F3F4F39832883108306C0E88551
:1026A000F985812F1995892B29F72E813F812F5F7D
:1026B0003F4F3F832E83812F902FDF91CF911F912A
:1026C0000F910895FA01AA27283051F1203181F1A4
:1026D000E8946F936E7F6E5F7F4F8F4F9F4FAF4F2A
:1026E000B1E03ED0B4E03CD0670F781F891F9A1F3D
:1026F000A11D680F791F8A1F911DA11D6A0F711DF1
:10270000811D911DA11D20D009F468943F912AE0FC
:10271000269F11243019305D3193DEF6CF010895E4
:10272000462F4770405D4193B3E00FD0C9F7F6CF15
:10273000462F4F70405D4A3318F0495D31FD4052DD
:10274000419302D0A9F7EACFB4E0A6959795879573
:1027500077956795BA95C9F7009761057105089552
:102760009B01AC010A2E06945795479537952795FE
:10277000BA95C9F7620F731F841F951FA01D089596
:04278000F894FFCFFB
:102784000100000003030000000000000000016AD3
:102794006F79737469636B2025640A00000000007C
:1027A40099086D0842084A085D086C08000000009A
:0C27B400590CD50DAE0BC70BB90B380C3F
:00000001FF
