S00F0000677275707065362E737265634C
S11300000C94F6000C9413010C9413010C9413013A
S11300100C9413010C9413010C9413010C9413010C
S11300200C9413010C9413010C9413010C941301FC
S11300300C9413010C9413010C9413010C941301EC
S11300400C9413010C9413010C9413010C941301DC
S11300500C9413010C9413010C9413010C941301CC
S11300600C9413010C9413010C9413010C941301BC
S113007000000000005C00000C000C007C287C28C0
S113008058DC68002410480028542840000C000064
S1130090007884008478000054385400107C1000E8
S11300A080400000101010000040000060100C00A0
S11300B038543800487C40004864580044542C00AC
S11300C01C107C005C5424003854240064140C007C
S11300D068542C0048543800004800008048000050
S11300E0102844002828280044281000045408003C
S11300F038445C00781478007C5428003844280084
S11301007C4438007C5444007C140400384474005B
S11301107C107C00447C440020403C007C106C003B
S11301207C4040007C187C0078103C003844380047
S11301307C1408003844B8007C1468004854240037
S1130140047C04007C407C003C603C007C307C00EF
S11301506C106C000C700C0064544C00007C440067
S11301600C106000447C00000804080080808000BB
S113017000040800304878007C48300030484800CB
S113018030487C00306850001078140090A8780043
S11301907C08700050744000808074007C106800FB
S11301A0447C4000781078007808700030483000B3
S11301B0F82810003048F80078100800505828003B
S11301C0083C4800384078003840380078207800EF
S11301D04830480098A07800486858001078840097
S11301E0007C0000847810000804080411241FBE59
S11301F0CFEFD4E0DEBFCDBF11E0A0E0B1E0ECE78B
S1130200F6E102C005900D92A83BB107D9F721E0B1
S1130210A8EBB1E001C01D92A63CB207E1F70E9431
S11302203E060C943C0B0C94000085B7806885BF97
S113023080B7806280BFBB9808958C5F8093001460
S113024080E18A95F1F700C0B399FECF8091001444
S11302500895CF93C82F0E942C060E94F8014C2FBA
S113026060EE8FE00E94DE0140E660E680E60E94D8
S1130270DE0140E064E080E60E94DE0140E06FEFD2
S11302808BE20E94DE01CF910895CF92DF92EF922C
S1130290FF920F931F93CF93DF93CDB7DEB72A97C7
S11302A00FB6F894DEBF0FBECDBF0983C12E1A83EB
S11302B02B833C834D835E836F83788789879A87FA
S11302C080E30E949F0183FDFBCF61E3802F86952D
S11302D0869586950E94B10162E3802F8295880FEE
S11302E0807E0E94B10165E38C2D0E94B101D12C66
S11302F01C141D0494F47E0183E0E80EF11C00E05C
S113030010E066E3600FF70181917F010E94B10163
S11303100F5F1F4F0C151D05A4F380E00E94C5015B
S11303202A960FB6F894DEBF0FBECDBFDF91CF91F2
S11303301F910F91FF90EF90DF90CF900895CF938E
S1130340C82F0E943A0683E00E9431068C2F0E9437
S113035031060E943506C82F0E943C068C2FCF918F
S11303600895CF93DF93C82FD62F0E943A0682E0D8
S11303700E9431068D2F0E9431068C2F0E94310677
S11303800E943C06DF91CF910895CF93C82F0E941D
S11303903A06C13041F018F0C23049F00BC081E890
S11303A00E94310607C082E80E94310603C084E837
S11303B00E9431060E943C06CF9108951F93CF936B
S11303C0DF93182FD62FC42F0E943A0685E00E948F
S11303D03106812F0E9431068D2F0E9431068C2F09
S11303E00E9431060E943C06DF91CF911F9108952F
S11303F00E943A0680EC0E9431060E943C06089551
S1130400FB0181830895FB01828308950F931F9359
S1130410CF93DF93CDB7DEB72A970FB6F894DEBF3C
S11304200FBECDBFFB0121E0280F2083AE014F5F3B
S11304305F4F8AE0DA011D928A95E9F731814281A2
S113044002E013E05E816F81788589859A850E9438
S113045045010E9459052A960FB6F894DEBF0FBED7
S1130460CDBFDF91CF911F910F910895DC011396B9
S11304702C9113972223B9F01496ED91FC911597C2
S1130480A081B18112968C9181110FC0329606C061
S1130490A191B19112969C91911108C08F5F821322
S11304A0F7CF80E0089580E0089580E008950F93E9
S11304B01F93CF93DF93EC018B010E943602E82F48
S11304C0F0E0EE0FFF1F2C813D81E20FF31F01903E
S11304D0F081E02D9381911108C00084F185E02D15
S11304E0B80109958E819F8102C08E2F9F2FDF91C5
S11304F0CF911F910F910895CF93DF93EC010E9448
S113050036028823B1F090E0880F991FEC81FD81B9
S1130510E80FF91F0190F081E02D1282EC81FD813A
S11305208E0F9F1FFC0132970190F081E02D81E036
S11305308283DF91CF910895CF93DF93EC010E94E2
S11305403602482F50E02B8130E021503109421708
S11305505307ACF4CA01880F991FEC81FD81E80FA1
S1130560F91F0190F081E02D12822C813D81F90167
S1130570E80FF91F0280F381E02D81E08283DF918F
S1130580CF910895DF92EF92FF920F931F93CF9331
S1130590DF938C01D62E7A018AE090E00E94D60681
S11305A0EC018AE0FE0111928A95E9F78D2D90E025
S11305B0880F991F0E94D6069D838C83DB82F9865F
S11305C0E88619830883CE01DF91CF911F910F91A3
S11305D0FF90EF90DF9008950F931F93CF93DF93D5
S11305E0EC018B81882339F110E001E0812F90E048
S11305F0880F991FEC81FD81E80FF91F0190F081AC
S1130600E02DD783C683111106C0EC81FD810190D2
S1130610F081E02D02832B81222369F02C813D811E
S1130620F901E80FF91F808191810E94EC021F5F9C
S11306308B811817D8F2DF91CF911F910F910895F4
S11306400F931F93CF93DF9340E050E062E089E083
S113065091E00E94C202EC010C811D8140E050E057
S113066062E083E191E00E94C202F80191838083F9
S1130670EC81FD810190F081E02D0481158146E03B
S113068052E060E08CE191E00E94C202F8019183A3
S11306908083EC81FD810190F081E02D048115813E
S11306A046E052E060E08AE291E00E94C202F80172
S11306B0938382830C811D8140E050E062E088E3F3
S11306C091E00E94C202F80193838283EC81FD8150
S11306D00280F381E02D0481158140E050E062E066
S11306E080E491E00E94C202F80191838083EC814E
S11306F0FD810280F381E02D0480F581E02D0190DD
S1130700F081E02D0481158143E052E060E08EE445
S113071091E00E94C202F80191838083EC81FD8103
S11307200280F381E02D0480F581E02D0190F081B9
S1130730E02D0481158143E052E060E089E591E019
S11307400E94C202F80193838283EC81FD810280BE
S1130750F381E02D0481158140E050E062E08CE6F5
S113076091E00E94C202F80193838283EC81FD81AF
S11307700280F381E02D0480F581E02D0280F38175
S1130780E02D0481158140E052E060E08EE791E0C5
S11307900E94C202F80191838083EC81FD81028072
S11307A0F381E02D0480F581E02D0280F381E02DBA
S11307B00481158140E052E060E084E891E00E9409
S11307C0C202F80193838283CE010E94EC02CE011F
S11307D0DF91CF911F910F910895FF920F931F9373
S11307E0CF93DF93EC0160E080E00E94B405888140
S11307F099810E940A060E94BD058B81882389F194
S113080000E0FF24F394F00E60E08F2D0E94B40505
S113081010E0000F111FEC81FD81E00FF11F01902A
S1130820F081E02D8281882329F08DE891E00E94F7
S11308300A0604C080E991E00E940A062C813D81E9
S1130840F901E00FF11F0190F081E02D8081918189
S11308500E940A060E94BD058B81F81610F40F2D24
S1130860D0CFDF91CF911F910F91FF900895EF9218
S1130870FF920F931F93CF93DF93EC018B017A01C7
S11308800E9433058130F1F040F1823019F0833059
S113089069F033C0F80180818430A9F582E0808357
S11308A0CE010E947C028C2F9D2F38C0F8018081DC
S11308B0843061F583E08083CE010E949C028C2FFA
S11308C09D2F2CC0F8018081843019F581E080834C
S11308D0B701CE010E94570221C0F8018081843003
S11308E0D9F410822E813F812115310519F0822F10
S11308F0932F14C08C2F9D2F11C084E0F8018083A6
S11309008C2F9D2F0BC08C2F9D2F08C08C2F9D2FBB
S113091005C08C2F9D2F02C08C2F9D2FDF91CF916E
S11309201F910F91FF90EF9008950F931F93CF9312
S1130930DF93CDB7DEB764970FB6F894DEBF0FBE72
S1130940CDBF8C0160E080E00E94B40583E991E0B2
S11309500E940A0660E081E00E94B405F8018281E9
S11309601F928F9381811F928F9380811F928F9307
S113097082EA91E09F938F938E010F5F1F4F1F9325
S11309800F930E944808C8010E940A060FB6F89403
S1130990DEBF0FBECDBF64960FB6F894DEBF0FBEA8
S11309A0CDBFDF91CF911F910F91089580E00E94F8
S11309B01D018093B80181E00E941D018093B9015B
S11309C008950E94150187B3887F87BB88B3876029
S11309D088BB0E94D60408958130910541F082308D
S11309E0910549F0892B61F486B38170089586B32B
S11309F086958170089586B382FB882780F90895CF
S1130A0080E008950F931F93CF93DF9380E00E94BB
S1130A101D01282F30E08091B801281B310914E60C
S1130A20129FC001139F900D1124CFE7D0E0BE01A7
S1130A300E94AE06062F81E00E941D01482F50E05F
S1130A408091B901481B5109149FC001159F900D55
S1130A501124BE010E94AE06962F802FDF91CF9104
S1130A601F910F9108950E940205833D44F08E3238
S1130A7044F49E3244F4933D44F483E0089580E0CA
S1130A80089581E0089582E0089584E0089590EB4C
S1130A90980F909300108093BA0108950E9447051F
S1130AA080E890E0E0E0F2E1108201970097E1F73E
S1130AB00895CF93C0E08C2F0E944E05CF5FC830BD
S1130AC0D1F7CF910895982F9F70282F22952F70DA
S1130AD0205FE0E0F0E1208390838093BB010895E0
S1130AE080E00E94470580E00E946305089585B771
S1130AF0806885BF80B7806280BFE0E0F0E18EEA65
S1130B00808381EA80838AED808382E1808388EC1C
S1130B10808388EA80838FE3808385ED808380E807
S1130B20808381E8808380E5808389ED808381E20E
S1130B30808380E2808382E080838BED808380E306
S1130B4080838DEA8083108284EA808386EA8083AE
S1130B508FEA808380EB8083108280E180830E940F
S1130B6059050E9470050895CF93C62F0E9447052A
S1130B708C2F0E946305CF9108958091BB0190E072
S1130B80803891053CF4E0E0F2E11082019680386F
S1130B909105D9F71092BB0108958A3041F09091E4
S1130BA00801492F50E01416150624F025C00E94B0
S1130BB0BD05089520E030E0682F70E060527109AF
S1130BC0A0E0B2E1469FF001479FF00D569FF00D63
S1130BD01124E20FF31F8091060190910701E80FA1
S1130BE0F91FE491EC932F5F3F4F90910801492F37
S1130BF050E02417350734F38091BB01480F511D91
S1130C00403851051CF01092BB010895980F909341
S1130C10BB010895EF92FF920F931F93CF93DF933D
S1130C208C017C01C0E0D0E006C0F70181917F0116
S1130C300E94CD052196F80101900020E9F7319733
S1130C40E01BF10BCE17DF0780F3DF91CF911F91EB
S1130C500F91FF90EF90089580EB87BB81E58DB9EC
S1130C6008958FB9779BFECF089580E00E943106E6
S1130C708FB10895C4980895C49A0895CF93DF93CB
S1130C80CDB7DEB727970FB6F894DEBF0FBECDBF42
S1130C908FE190E00E94A30680E00E9429010E9457
S1130CA0E1040E9477050E9420038C0119821A82B4
S1130CB081E08B831C821D821E8284E08F83898164
S1130CC0882319F0813079F0FBCFC8010E94ED032D
S1130CD0AE014F5F5F4FBE01695F7F4FC8010E9445
S1130CE037048C01ECCFCE0104960E94950480E079
S1130CF090E00E94EC04811119828C818C3388F479
S1130D009D819C3350F48E81843618F48F5F8E83DA
S1130D100BC01E829F5F9D8307C01D828F5F8C83E3
S1130D2003C01C821D821E828FEF97E10197F1F7A9
S1130D3000C00000C4CF5D9BFECF8CB908955F9BBB
S1130D40FECF8CB1089590BD89B988E18AB96FE965
S1130D5076E08BE996E00E94FD07089597FB072E45
S1130D6016F4009407D077FD09D00E94C20607FC50
S1130D7005D03EF4909581959F4F089570956195A7
S1130D807F4F0895AA1BBB1B51E107C0AA1FBB1FBD
S1130D90A617B70710F0A61BB70B881F991F5A9503
S1130DA0A9F780959095BC01CD010895CF93DF9369
S1130DB08230910510F482E090E0E091BE01F09160
S1130DC0BF0120E030E0A0E0B0E0309739F140818D
S1130DD0518148175907B8F04817590771F48281AF
S1130DE09381109729F013969C938E9312972CC09D
S1130DF09093BF018093BE0127C02115310531F0C6
S1130E004217530718F0A901DB0101C0EF019A0151
S1130E10BD01DF010280F381E02DD7CF211531051B
S1130E20F9F0281B390B2430310580F48A819B8129
S1130E306115710521F0FB019383828304C09093B3
S1130E40BF018093BE01FE01329644C0FE01E20F51
S1130E50F31F8193919322503109398328833AC037
S1130E602091BC013091BD01232B41F4209102015A
S1130E70309103013093BD012093BC012091000106
S1130E80309101012115310541F42DB73EB7409150
S1130E90040150910501241B350BE091BC01F09134
S1130EA0BD01E217F307A0F42E1B3F0B28173907E7
S1130EB078F0AC014E5F5F4F2417350748F04E0FB2
S1130EC05F1F5093BD014093BC018193919302C075
S1130ED0E0E0F0E0CF01DF91CF910895CF93DF936D
S1130EE0009709F487C0FC01329713821282C091E3
S1130EF0BE01D091BF01209781F420813181280F58
S1130F00391F8091BC019091BD018217930779F537
S1130F10F093BD01E093BC016DC0DE0120E030E040
S1130F20AE17BF0750F412964D915C9113979D0133
S1130F304115510509F1DA01F3CFB383A28340814E
S1130F405181840F951F8A179B0771F48D919C9191
S1130F501197840F951F02969183808312968D9129
S1130F609C911397938382832115310529F4F0937F
S1130F70BF01E093BE013EC0D9011396FC93EE93EA
S1130F8012974D915D91A40FB51FEA17FB0779F4F1
S1130F9080819181840F951F0296D90111969C93AB
S1130FA08E938281938113969C938E931297E0E0A3
S1130FB0F0E08A819B81009719F0FE01EC01F9CFE2
S1130FC0CE01029628813981820F931F2091BC01A2
S1130FD03091BD012817390769F4309729F410922C
S1130FE0BF011092BE0102C013821282D093BD01D0
S1130FF0C093BC01DF91CF9108950F931F93CF93BA
S1131000DF93EC018B01009731F46115710519F43C
S113101080E090E038C06EE070E081E090E00E94F3
S11310203C0AFC010097A1F380E8838301151105B4
S113103071F01387028781E883838091C0019091C6
S1131040C101892B21F4F093C101E093C0012097E1
S1131050C9F0D187C0878381826083838091C20174
S11310609091C301892B71F4F093C301E093C20101
S11310708091C4019091C501892B21F4F093C5019D
S1131080E093C401CF01DF91CF911F910F91089597
S1131090AEE0B0E0EEE4F8E00C94130B0D891E8989
S11310A086E08C831A8309838FEF9FE79E838D8369
S11310B0AE01475E5F4F6F89788DCE0101960E9425
S11310C06A08EF81F885E00FF11F10822E96E4E0A4
S11310D00C942F0BACE0B0E0E0E7F8E00C94050BC7
S11310E07C016B018A01FC0117821682838181FFD6
S11310F0BDC1CE0101964C01F7019381F60193FD28
S1131100859193FF81916F01882309F4ABC18532E6
S113111039F493FD859193FF81916F01853229F410
S1131120B70190E00E94750AE7CF512C312C20E0E2
S11311302032A0F48B3269F030F4803259F08332DB
S113114069F420612CC08D3239F0803339F4216088
S113115026C02260246023C0286021C027FD27C048
S113116030ED380F3A3078F426FF06C0FAE05F9E7F
S1131170300D1124532E13C08AE0389E300D1124F3
S1131180332E20620CC08E3221F426FD6BC1206404
S113119006C08C3611F4206802C0883641F4F6018A
S11311A093FD859193FF81916F018111C1CF982F98
S11311B09F7D9554933028F40C5F1F4FFFE3F98310
S11311C00DC0833631F0833771F0833509F05BC08D
S11311D022C0F801808189830E5F1F4F4424439409
S11311E0512C540115C03801F2E06F0E711CF80146
S11311F0A080B18026FF03C0652D70E002C06FEFB0
S11312007FEFC5012C870E946A0A2C0183012C857B
S11312102F77222E17C03801F2E06F0E711CF801EF
S1131220A080B18026FF03C0652D70E002C06FEF7F
S11312307FEFC5012C870E94580A2C012C85206859
S1131240222E830123FC1BC0832D90E048165906EF
S1131250B0F4B70180E290E00E94750A3A94F4CFAA
S1131260F50127FC859127FE81915F01B70190E08C
S11312700E94750A31103A94F1E04F1A5108411452
S1131280510471F7E5C0843611F0893639F5F80157
S113129027FF07C060817181828193810C5F1F4F9A
S11312A008C060817181882777FD8095982F0E5F33
S11312B01F4F2F76B22E97FF09C090958095709599
S11312C061957F4F8F4F9F4F2068B22E2AE030E008
S11312D0A4010E94A70AA82EA81844C0853729F49F
S11312E02F7EB22E2AE030E025C0F22FF97FBF2EE8
S11312F08F36C1F018F4883579F0B4C0803719F00E
S1131300883721F0AFC02F2F2061B22EB4FE0DC05C
S11313108B2D8460B82E09C024FF0AC09F2F9660CD
S1131320B92E06C028E030E005C020E130E002C05C
S113133020E132E0F801B7FE07C06081718182814B
S113134093810C5F1F4F06C06081718180E090E043
S11313500E5F1F4FA4010E94A70AA82EA818FB2DF8
S1131360FF77BF2EB6FE0BC02B2D2E7FA51450F495
S1131370B4FE0AC0B2FC08C02B2D2E7E05C07A2C08
S11313802B2D03C07A2C01C0752C24FF0DC0FE0147
S1131390EA0DF11D8081803311F4297E09C022FFFA
S11313A006C07394739404C0822F867809F07394F2
S11313B023FD13C020FF06C05A2C731418F4530CD9
S11313C05718732C731468F4B70180E290E02C87EB
S11313D00E94750A73942C85F5CF731410F4371892
S11313E001C0312C24FF12C0B70180E390E02C87A8
S11313F00E94750A2C8522FF17C021FF03C088E5CF
S113140090E002C088E790E0B7010CC0822F867894
S113141059F021FD02C080E201C08BE227FD8DE27C
S1131420B70190E00E94750AA51438F4B70180E36F
S113143090E00E94750A5A94F7CFAA94F401EA0D39
S1131440F11D8081B70190E00E94750AA110F5CFCB
S1131450332009F451CEB70180E290E00E94750A6E
S11314603A94F6CFF7018681978102C08FEF9FEF00
S11314702C96E2E10C94210B0F931F93CF93DF93EF
S1131480869F8001879F100D969F100D1124C8011F
S11314900E94D606EC01009729F0A80160E070E0F4
S11314A00E94630ACE01DF91CF911F910F9108959D
S11314B0FC010590615070400110D8F7809590951B
S11314C08E0F9F1F0895DC0101C06D934150504061
S11314D0E0F70895FC016150704001900110D8F7C5
S11314E0809590958E0F9F1F08950F931F93CF9310
S11314F0DF93182F092FEB018B8181FD03C08FEF40
S11315009FEF20C082FF10C04E815F812C813D81FE
S1131510421753077CF4E881F9819F012F5F3F4F05
S113152039832883108306C0E885F985812F0995BE
S1131530892B29F72E813F812F5F3F4F3F832E83D5
S1131540812F902FDF91CF911F910F910895FA0170
S1131550AA27283051F1203181F1E8946F936E7FEE
S11315606E5F7F4F8F4F9F4FAF4FB1E03ED0B4E0DF
S11315703CD0670F781F891F9A1FA11D680F791F20
S11315808A1F911DA11D6A0F711D811D911DA11D31
S113159020D009F468943F912AE0269F1124301941
S11315A0305D3193DEF6CF010895462F4770405DDC
S11315B04193B3E00FD0C9F7F6CF462F4F70405D8B
S11315C04A3318F0495D31FD4052419302D0A9F7E6
S11315D0EACFB4E0A6959795879577956795BA95E0
S11315E0C9F700976105710508959B01AC010A2EA6
S11315F006945795479537952795BA95C9F7620F7D
S1131600731F841F951FA01D08952F923F924F9220
S11316105F926F927F928F929F92AF92BF92CF927E
S1131620DF92EF92FF920F931F93CF93DF93CDB787
S1131630DEB7CA1BDB0B0FB6F894DEBF0FBECDBFFF
S113164009942A88398848885F846E847D848C84D0
S11316509B84AA84B984C884DF80EE80FD800C81D9
S11316601B81AA81B981CE0FD11D0FB6F894DEBFBC
S10F16700FBECDBFED010895F894FFCF2C
S113167C0000C60120007000044D61696E206D6588
S113168C6E75004E65772067616D650053696E67F2
S113169C6C6520706C6179657200446F75626C6561
S11316AC20706C61796572004F7074696F6E730091
S11316BC4A6F79737469636B20747970650044752F
S11316CC616C73686F636B33004D756C746966750C
S11316DC6E6374696F6E2043617264004D65746847
S11316EC6F64206F6620636F6E74726F6C0053703E
S11316FC65656400506F736974696F6E002D3E00EC
S113170C20200053696E676C6520706C617965727A
S113171C0A0054696D653A20253032643A2530321A
S10B172C643A253032640A001E
S9030000FC
