:100000000C94F6000C9413010C9413010C9413013E
:100010000C9413010C9413010C9413010C94130110
:100020000C9413010C9413010C9413010C94130100
:100030000C9413010C9413010C9413010C941301F0
:100040000C9413010C9413010C9413010C941301E0
:100050000C9413010C9413010C9413010C941301D0
:100060000C9413010C9413010C9413010C941301C0
:1000700000000000005C00000C000C007C287C28C4
:1000800058DC68002410480028542840000C000068
:10009000007884008478000054385400107C1000EC
:1000A00080400000101010000040000060100C00A4
:1000B00038543800487C40004864580044542C00B0
:1000C0001C107C005C5424003854240064140C0080
:1000D00068542C0048543800004800008048000054
:1000E0001028440028282800442810000454080040
:1000F00038445C00781478007C5428003844280088
:100100007C4438007C5444007C140400384474005F
:100110007C107C00447C440020403C007C106C003F
:100120007C4040007C187C0078103C00384438004B
:100130007C1408003844B8007C146800485424003B
:10014000047C04007C407C003C603C007C307C00F3
:100150006C106C000C700C0064544C00007C44006B
:100160000C106000447C00000804080080808000BF
:1001700000040800304878007C48300030484800CF
:1001800030487C00306850001078140090A8780047
:100190007C08700050744000808074007C106800FF
:1001A000447C4000781078007808700030483000B7
:1001B000F82810003048F80078100800505828003F
:1001C000083C4800384078003840380078207800F3
:1001D0004830480098A0780048685800107884009B
:1001E000007C0000847810000804080411241FBE5D
:1001F000CFEFD4E0DEBFCDBF11E0A0E0B1E0E2E799
:10020000F1E102C005900D92AA39B107D9F721E0BA
:10021000AAE9B1E001C01D92A93AB207E1F70E9434
:1002200078060C94B7080C94000085B7806885BFE9
:1002300080B7806280BFBB9808958C5F8093001464
:1002400080E18A95F1F700C0B399FECF8091001448
:100250000895CF93C82F0E9466060E9468024C2F13
:1002600060EE8FE00E944E0240E660E680E60E946B
:100270004E0240E064E080E60E944E0240E06FEFF4
:100280008BE20E944E02CF910895CF92DF92EF92BF
:10029000FF920F931F93CF93DF93CDB7DEB72A97CB
:1002A0000FB6F894DEBF0FBECDBF0983C12E1A83EF
:1002B0002B833C834D835E836F83788789879A87FE
:1002C00080E30E940F0283FDFBCF61E3802F8695C0
:1002D000869586950E94210262E3802F8295880F81
:1002E000807E0E94210265E38C2D0E942102D12C88
:1002F0001C141D0494F47E0183E0E80EF11C00E060
:1003000010E066E3600FF70181917F010E942102F6
:100310000F5F1F4F0C151D05A4F380E00E943502EE
:100320002A960FB6F894DEBF0FBECDBFDF91CF91F6
:100330001F910F91FF90EF90DF90CF9008959F92C3
:10034000AF92BF92CF92DF92EF92FF920F931F93E3
:10035000CF93DF93CDB7DEB72A970FB6F894DEBF01
:100360000FBECDBF6C01FE0131968AE0DF011D9208
:100370008A95E9F78CE20E940F0280FF31C082E685
:100380000E940F02182F81E60E940F02880F880F2B
:10039000880F129516951770982E910E85E60E947B
:1003A0000F028F70A82EA1F08E010D5F1F4F7801F4
:1003B000E80EF11C0F2EF6E6BF2EF02D8B2D0E94BD
:1003C0000F02F80181938F01B394EE15FF05B1F789
:1003D00010929A0140E061E08CE20E944E0202C05D
:1003E000A12C912C9982AA828AE0FE013196D60135
:1003F00001900D928A95E1F7C6012A960FB6F894FE
:10040000DEBF0FBECDBFDF91CF911F910F91FF9047
:10041000EF90DF90CF90BF90AF909F900895CF93D3
:10042000C82F0E94740683E00E946B068C2F0E94E6
:100430006B060E946F06C82F0E9476068C2FCF9104
:100440000895CF93DF93C82FD62F0E94740682E0C1
:100450000E946B068D2F0E946B068C2F0E946B06EC
:100460000E947606DF91CF910895CF93C82F0E9406
:100470007406C13041F018F0C23049F00BC081E879
:100480000E946B0607C082E80E946B0603C084E8E6
:100490000E946B060E947606CF9108951F93CF931A
:1004A000DF93182FD62FC42F0E94740685E00E9478
:1004B0006B06812F0E946B068D2F0E946B068C2F7E
:1004C0000E946B060E947606DF91CF911F910895DE
:1004D0000E94740680EC0E946B060E9476060895C6
:1004E000FB0181830895FB01828308950F931F937D
:1004F000CF93DF93CDB7DEB72A970FB6F894DEBF60
:100500000FBECDBFFB0121E0280F2083AE014F5F5E
:100510005F4F8AE0DA011D928A95E9F731814281C5
:1005200002E013E05E816F81788589859A850E945B
:1005300045012A960FB6F894DEBF0FBECDBFDF91FE
:10054000CF911F910F910895DC0113962C91139771
:100550002223B9F01496ED91FC911597A081B181F9
:1005600012968C9181110FC0329606C0A191B19163
:1005700012969C91911108C08F5F8213F7CF80E093
:10058000089580E0089580E008950F931F93CF931E
:10059000DF93EC018B010E94A402E82FF0E0EE0F44
:1005A000FF1F2C813D81E20FF31F0190F081E02DB0
:1005B0009381911108C00084F185E02DB80109955F
:1005C0008E819F8102C08E2F9F2FDF91CF911F912F
:1005D0000F910895CF93DF93EC010E94A40288232A
:1005E000B1F090E0880F991FEC81FD81E80FF91FB1
:1005F0000190F081E02D1282EC81FD818E0F9F1F12
:10060000FC0132970190F081E02D81E08283DF913F
:10061000CF910895CF93DF93EC010E94A402482F5D
:1006200050E02B8130E02150310942175307ACF4E0
:10063000CA01880F991FEC81FD81E80FF91F019015
:10064000F081E02D12822C813D81F901E80FF91F24
:100650000280F381E02D81E08283DF91CF910895C4
:10066000DF92EF92FF920F931F93CF93DF938C0152
:10067000D62E7A018AE090E00E942207EC018AE0FF
:10068000FE0111928A95E9F78D2D90E0880F991F50
:100690000E9422079D838C83DB82F986E88619837A
:1006A0000883CE01DF91CF911F910F91FF90EF90C2
:1006B000DF9008950F931F93CF93DF93EC018B810D
:1006C000882339F110E001E0812F90E0880F991F15
:1006D000EC81FD81E80FF91F0190F081E02DD783B7
:1006E000C683111106C0EC81FD810190F081E02DDF
:1006F00002832B81222369F02C813D81F901E80FCF
:10070000F91F808191810E945A031F5F8B81181706
:10071000D8F2DF91CF911F910F9108950F931F93FE
:10072000CF93DF9340E050E062E089E091E00E94E7
:100730003003EC010C811D8140E050E062E083E178
:1007400091E00E943003F80191838083EC81FD8168
:100750000190F081E02D0481158146E752E060E0D0
:100760008CE191E00E943003F80191838083EC8159
:10077000FD810190F081E02D0481158146E752E072
:1007800060E08AE291E00E943003F8019383828363
:100790000C811D8140E050E062E088E391E00E941E
:1007A0003003F80193838283EC81FD810280F38121
:1007B000E02D0481158140E050E062E080E491E0AA
:1007C0000E943003F80191838083EC81FD810280D7
:1007D000F381E02D0480F581E02D0190F081E02D82
:1007E0000481158143E752E060E08EE491E00E94CD
:1007F0003003F80191838083EC81FD810280F381D5
:10080000E02D0480F581E02D0190F081E02D048140
:10081000158143E752E060E089E591E00E943003F2
:10082000F80193838283EC81FD810280F381E02DC6
:100830000481158140E050E062E08CE691E00E9486
:100840003003F80193838283EC81FD810280F38180
:10085000E02D0480F581E02D0280F381E02D0481FC
:10086000158140E752E060E08EE791E00E9430039E
:10087000F80191838083EC81FD810280F381E02D7A
:100880000480F581E02D0280F381E02D0481158143
:1008900040E752E060E084E891E00E943003F80114
:1008A00093838283CE010E945A03CE01DF91CF91C0
:1008B0001F910F910895FF920F931F93CF93DF9392
:1008C000EC0160E080E00E94E105888199810E944E
:1008D00037060E94EA058B81882389F100E0FF2416
:1008E000F394F00E60E08F2D0E94E10510E0000F00
:1008F000111FEC81FD81E00FF11F0190F081E02DCF
:100900008281882329F08DE891E00E94370604C097
:1009100080E991E00E9437062C813D81F901E00FCA
:10092000F11F0190F081E02D808191810E943706B6
:100930000E94EA058B81F81610F40F2DD0CFDF91BD
:10094000CF911F910F91FF900895EF92FF920F9317
:100950001F93CF93DF93EC018B017A010E94600516
:100960008130F1F040F1823019F0833069F033C00A
:10097000F80180818430A9F582E08083CE010E9455
:10098000EA028C2F9D2F38C0F8018081843061F5F8
:1009900083E08083CE010E940A038C2F9D2F2CC000
:1009A000F8018081843019F581E08083B701CE01A0
:1009B0000E94C50221C0F80180818430D9F41082E0
:1009C0002E813F812115310519F0822F932F14C0FC
:1009D0008C2F9D2F11C084E0F80180838C2F9D2FD8
:1009E0000BC08C2F9D2F08C08C2F9D2F05C08C2FE6
:1009F0009D2F02C08C2F9D2FDF91CF911F910F91C2
:100A0000FF90EF90089580E00E941D0180939B016C
:100A100081E00E941D0180939C0108950E941501B0
:100A200087B3887F87BB88B3876088BB0E94030534
:100A300008958130910541F08230910549F0892B6C
:100A400061F486B38170089586B3869581700895A8
:100A500086B382FB882780F9089580E008950F937C
:100A60001F93CF93DF9380E00E941D01282F30E079
:100A700080919B01281B310914E6129FC001139F2E
:100A8000900D1124CFE7D0E0BE010E94FA06062F98
:100A900081E00E941D01482F50E080919C01481B7D
:100AA0005109149FC001159F900D1124BE010E9491
:100AB000FA06962F802FDF91CF911F910F91089505
:100AC0000E942F05833D44F08E3244F49E3244F45C
:100AD000933D44F483E0089580E0089581E0089513
:100AE00082E0089584E0089590EB980F90930010B1
:100AF00080939D0108950E94740580E890E0E0E0F5
:100B0000F2E1108201970097E1F70895CF93C0E0DA
:100B10008C2F0E947B05CF5FC830D1F7CF9108950D
:100B2000982F9F70282F22952F70205FE0E0F0E132
:100B30002083908380939E01089580E00E94740535
:100B400080E00E949005089585B7806885BF80B7D2
:100B5000806280BFE0E0F0E18EEA808381EA8083FA
:100B60008AED808382E1808388EC808388EA8083B9
:100B70008FE3808385ED808380E8808381E88083B4
:100B800080E5808389ED808381E2808380E28083B9
:100B900082E080838BED808380E380838DEA808395
:100BA000108284EA808386EA80838FEA808380EBE8
:100BB0008083108280E180830E9486050E949D05CB
:100BC0000895CF93C62F0E9474058C2F0E94900524
:100BD000CF91089580919E0190E0803891053CF47A
:100BE000E0E0F2E11082019680389105D9F7109289
:100BF0009E0108958A3041F090910801492F50E0FC
:100C00001416150624F025C00E94EA05089520E078
:100C100030E0682F70E060527109A0E0B2E1469FB9
:100C2000F001479FF00D569FF00D1124E20FF31FC6
:100C30008091060190910701E80FF91FE491EC9370
:100C40002F5F3F4F90910801492F50E0241735073F
:100C500034F380919E01480F511D403851051CF01E
:100C600010929E010895980F90939E010895EF921F
:100C7000FF920F931F93CF93DF938C017C01C0E011
:100C8000D0E006C0F70181917F010E94FA0521960C
:100C9000F80101900020E9F73197E01BF10BCE1726
:100CA000DF0780F3DF91CF911F910F91FF90EF90BD
:100CB00008950E949D058CE191E00E9437060E94F4
:100CC000EA0583E991E00E943706089580EB87BB2F
:100CD00081E58DB908958FB9779BFECF089580E0A7
:100CE0000E946B068FB10895C4980895C49A089520
:100CF000CF93DF93CDB7DEB768970FB6F894DEBF1A
:100D00000FBECDBF8FE190E00E94EF0680E00E9411
:100D100029010E940E050E94A4050E948E037C01F9
:100D200019821A8281E08B8394E09C83FE013F96B6
:100D30009AE0DF011D929A95E9F78F8787E0888B0B
:100D4000CE0105960E949F018981882319F0813088
:100D500079F010C0C7010E945B04AE014F5F5F4F86
:100D6000BE016C5F7F4FC7010E94A5047C0102C0D9
:100D70000E94590689818150823010F78B81813021
:100D8000F9F60E942F05898B9A8B80E090E00E94F3
:100D900019058B8B81E090E00E9419058C8B82E015
:100DA00090E00E9419058D8B82E00E941D018E8BC0
:100DB00083E00E941D010F85188929893A894B8992
:100DC0005C896D897E89988D0E944501B9CF5D9BB4
:100DD000FECF8CB908955F9BFECF8CB1089590BD76
:100DE00089B988E18AB96BEE76E087EE96E00E94D9
:100DF0004908089597FB072E16F4009407D077FD55
:100E000009D00E940E0707FC05D03EF4909581950D
:100E10009F4F0895709561957F4F0895AA1BBB1B46
:100E200051E107C0AA1FBB1FA617B70710F0A61BEA
:100E3000B70B881F991F5A95A9F780959095BC010B
:100E4000CD010895CF93DF938230910510F482E0B5
:100E500090E0E091A101F091A20120E030E0A0E05B
:100E6000B0E0309739F14081518148175907B8F007
:100E70004817590771F482819381109729F01396CE
:100E80009C938E9312972CC09093A2018093A10102
:100E900027C02115310531F04217530718F0A90179
:100EA000DB0101C0EF019A01BD01DF010280F38186
:100EB000E02DD7CF21153105F9F0281B390B24304F
:100EC000310580F48A819B816115710521F0FB0158
:100ED0009383828304C09093A2018093A101FE01B9
:100EE000329644C0FE01E20FF31F8193919322508A
:100EF0003109398328833AC020919F013091A001A4
:100F0000232B41F420910201309103013093A00181
:100F100020939F012091000130910101211531059D
:100F200041F42DB73EB74091040150910501241BB7
:100F3000350BE0919F01F091A001E217F307A0F4B7
:100F40002E1B3F0B2817390778F0AC014E5F5F4F1F
:100F50002417350748F04E0F5F1F5093A0014093B0
:100F60009F018193919302C0E0E0F0E0CF01DF9117
:100F7000CF910895CF93DF93009709F487C0FC01C8
:100F8000329713821282C091A101D091A2012097C1
:100F900081F420813181280F391F80919F01909128
:100FA000A0018217930779F5F093A001E0939F01C8
:100FB0006DC0DE0120E030E0AE17BF0750F412969E
:100FC0004D915C9113979D014115510509F1DA018D
:100FD000F3CFB383A28340815181840F951F8A1779
:100FE0009B0771F48D919C911197840F951F029628
:100FF0009183808312968D919C9113979383828322
:101000002115310529F4F093A201E093A1013EC01E
:10101000D9011396FC93EE9312974D915D91A40F15
:10102000B51FEA17FB0779F480819181840F951F22
:101030000296D90111969C938E9382819381139687
:101040009C938E931297E0E0F0E08A819B81009759
:1010500019F0FE01EC01F9CFCE0102962881398109
:10106000820F931F20919F013091A001281739070B
:1010700069F4309729F41092A2011092A10102C0E4
:1010800013821282D093A001C0939F01DF91CF9170
:1010900008950F931F93CF93DF93EC018B0100977B
:1010A00031F46115710519F480E090E038C06EE00C
:1010B00070E081E090E00E949408FC010097A1F3A9
:1010C00080E883830115110571F01387028781E899
:1010D00083838091A3019091A401892B21F4F09343
:1010E000A401E093A3012097C9F0D187C087838131
:1010F000826083838091A5019091A601892B71F470
:10110000F093A601E093A5018091A7019091A80119
:10111000892B21F4F093A801E093A701CF01DF917F
:10112000CF911F910F9108950F931F93CF93DF934A
:10113000869F8001879F100D969F100D1124C80176
:101140000E942207EC01009729F0A80160E070E0FE
:101150000E94B008CE01DF91CF911F910F910895A9
:10116000DC0101C06D9341505040E0F70895F894C0
:02117000FFCFAF
:101172000000A90120007000044D61696E206D65B8
:101182006E75004E65772067616D650053696E6705
:101192006C6520706C6179657200446F75626C6574
:1011A20020706C61796572004F7074696F6E7300A4
:1011B2004A6F79737469636B207479706500447542
:1011C200616C73686F636B33004D756C746966751F
:1011D2006E6374696F6E2043617264004D6574685A
:1011E2006F64206F6620636F6E74726F6C00537051
:1011F20065656400506F736974696F6E002D3E00FF
:0A12020020200054696D653A2000B9
:00000001FF
