:100000000C94F6000C9413010C9413010C9413013E
:100010000C9413010C9413010C9413010C94130110
:100020000C9413010C9413010C9413010C94130100
:100030000C9413010C9413010C9413010C941301F0
:100040000C9413010C9413010C9413010C941301E0
:100050000C9413010C9413010C9413010C941301D0
:100060000C9413010C9413010C9413010C941301C0
:1000700000000000005C00000C000C007C287C28C4
:1000800058DC68002410480028542840000C000068
:10009000007884008478000054385400107C1000EC
:1000A00080400000101010000040000060100C00A4
:1000B00038543800487C40004864580044542C00B0
:1000C0001C107C005C5424003854240064140C0080
:1000D00068542C0048543800004800008048000054
:1000E0001028440028282800442810000454080040
:1000F00038445C00781478007C5428003844280088
:100100007C4438007C5444007C140400384474005F
:100110007C107C00447C440020403C007C106C003F
:100120007C4040007C187C0078103C00384438004B
:100130007C1408003844B8007C146800485424003B
:10014000047C04007C407C003C603C007C307C00F3
:100150006C106C000C700C0064544C00007C44006B
:100160000C106000447C00000804080080808000BF
:1001700000040800304878007C48300030484800CF
:1001800030487C00306850001078140090A8780047
:100190007C08700050744000808074007C106800FF
:1001A000447C4000781078007808700030483000B7
:1001B000F82810003048F80078100800505828003F
:1001C000083C4800384078003840380078207800F3
:1001D0004830480098A0780048685800107884009B
:1001E000007C0000847810000804080411241FBE5D
:1001F000CFEFD4E0DEBFCDBF11E0A0E0B1E0E4E39B
:10020000FEE002C005900D92A039B107D9F721E0B8
:10021000A0E9B1E001C01D92AE39B207E1F70E943A
:1002200016050C9418070C94000085B7806885BFEC
:1002300080B7806280BFBB9808958C5F8093001464
:1002400080E18A95F1F700C0B399FECF8091001448
:100250000895CF93C82F0E9409050E945F014C2F7B
:1002600060EE8FE00E94450140E660E680E60E9475
:10027000450140E064E080E60E94450140E06FEF08
:100280008BE20E944501CF9108951F93CF93DF9396
:10029000182FD62FC42F0E94120585E00E940E054C
:1002A000812F0E940E058D2F0E940E058C2F0E941B
:1002B0000E050E941405DF91CF911F9108950E94B1
:1002C000120580EC0E940E050E9414050895FB01A2
:1002D00082830895DC0113962C9113972223B9F0A1
:1002E0001496ED91FC911597A081B18112968C9195
:1002F00081110FC0329606C0A191B19112969C91C6
:10030000911108C08F5F8213F7CF80E0089580E0DD
:10031000089580E008950F931F93CF93DF93EC012E
:100320008B010E946A01E82FF0E0EE0FFF1F2C8185
:100330003D81E20FF31F0190F081E02D9381911137
:1003400008C00084F185E02DB80109958E819F8158
:1003500002C08E2F9F2FDF91CF911F910F91089593
:10036000CF93DF93EC010E946A018823B1F090E003
:10037000880F991FEC81FD81E80FF91F0190F08132
:10038000E02D1282EC81FD818E0F9F1FFC013297C0
:100390000190F081E02D81E08283DF91CF9108957B
:1003A000CF93DF93EC010E946A01482F50E02B812C
:1003B00030E02150310942175307ACF4CA01880FCD
:1003C000991FEC81FD81E80FF91F0190F081E02D6C
:1003D00012822C813D81F901E80FF91F0280F3811F
:1003E000E02D81E08283DF91CF910895DF92EF923B
:1003F000FF920F931F93CF93DF938C01D62E7A0138
:100400008AE090E00E948305EC018AE0FE011192EF
:100410008A95E9F78D2D90E0880F991F0E9483053A
:100420009D838C83DB82F986E88619830883CE015D
:10043000DF91CF911F910F91FF90EF90DF90089582
:100440000F931F93CF93DF93EC018B81882339F1B6
:1004500010E001E0812F90E0880F991FEC81FD8171
:10046000E80FF91F0190F081E02DD783C6831111A9
:1004700006C0EC81FD810190F081E02D02832B818B
:10048000222369F02C813D81F901E80FF91F808159
:1004900091810E9420021F5F8B811817D8F2DF9193
:1004A000CF911F910F9108950F931F93CF93DF93D7
:1004B00040E050E062E089E091E00E94F601EC014A
:1004C0000C811D8140E050E062E083E191E00E94F8
:1004D000F601F80191838083EC81FD810190F08128
:1004E000E02D0481158147E651E060E08CE191E068
:1004F0000E94F601F80191838083EC81FD810190D7
:10050000F081E02D0481158147E651E060E08AE248
:1005100091E00E94F601F801938382830C811D8192
:1005200040E050E062E088E391E00E94F601F801CB
:1005300093838283EC81FD810280F381E02D04812D
:10054000158140E050E062E080E491E00E94F60115
:10055000F80191838083EC81FD810280F381E02D9D
:100560000480F581E02D0190F081E02D048115815A
:1005700040E050E060E08BE491E00E94F601F80179
:1005800091838083EC81FD810280F381E02D0480E2
:10059000F581E02D0190F081E02D0481158140E08E
:1005A00050E060E086E591E00E94F601F801938357
:1005B0008283EC81FD810280F381E02D048115812D
:1005C00040E050E062E089E691E00E94F601F80127
:1005D00093838283EC81FD810280F381E02D04808E
:1005E000F581E02D0280F381E02D0481158140E04A
:1005F00050E060E08BE791E00E94F601F801918302
:100600008083EC81FD810280F381E02D0480F581FF
:10061000E02D0280F381E02D0481158140E050E05F
:1006200060E081E891E00E94F601F8019383828303
:10063000CE010E942002CE01DF91CF911F910F9138
:100640000895FF920F931F93CF93DF93EC0160E027
:1006500080E00E949104888199810E94E7040E94B1
:100660009A048B81882389F100E0FF24F394F00E33
:1006700060E08F2D0E94910410E0000F111FEC81AB
:10068000FD81E00FF11F0190F081E02D8281882330
:1006900029F08AE891E00E94E70404C08DE891E027
:1006A0000E94E7042C813D81F901E00FF11F0190C8
:1006B000F081E02D808191810E94E7040E949A04DC
:1006C0008B81F81610F40F2DD0CFDF91CF911F91B1
:1006D0000F91FF900895EF92FF920F931F93CF9386
:1006E000DF93EC018B017A010E9410048130F1F05C
:1006F00040F1823019F0833069F033C0F801808115
:100700008430A9F582E08083CE010E94B0018C2F55
:100710009D2F38C0F8018081843061F583E08083AB
:10072000CE010E94D0018C2F9D2F2CC0F80180811A
:10073000843019F581E08083B701CE010E948B01DE
:1007400021C0F80180818430D9F410822E813F814C
:100750002115310519F0822F932F14C08C2F9D2F56
:1007600011C084E0F80180838C2F9D2F0BC08C2F4B
:100770009D2F08C08C2F9D2F05C08C2F9D2F02C050
:100780008C2F9D2FDF91CF911F910F91FF90EF90B4
:10079000089580E00E941D018093900181E00E94F5
:1007A0001D018093910108950E94150187B3887FF0
:1007B00087BB88B3876088BB0E94C90308950F93E5
:1007C0001F93CF93DF9380E00E941D01282F30E01C
:1007D00080919001281B310914E6129FC001139FDC
:1007E000900D1124CFE7D0E0BE010E945B05062FDB
:1007F00081E00E941D01482F50E080919101481B2B
:100800005109149FC001159F900D1124BE010E9433
:100810005B05962F802FDF91CF911F910F91089547
:100820000E94DF03833D44F08E3244F49E3244F450
:10083000933D44F483E0089580E0089581E00895B5
:1008400082E0089584E0089590EB980F9093001053
:100850008093920108950E94240480E890E0E0E0F3
:10086000F2E1108201970097E1F70895CF93C0E07D
:100870008C2F0E942B04CF5FC830D1F7CF91089501
:10088000982F9F70282F22952F70205FE0E0F0E1D5
:100890002083908380939301089580E00E94240434
:1008A00080E00E944004089585B7806885BF80B7C6
:1008B000806280BFE0E0F0E18EEA808381EA80839D
:1008C0008AED808382E1808388EC808388EA80835C
:1008D0008FE3808385ED808380E8808381E8808357
:1008E00080E5808389ED808381E2808380E280835C
:1008F00082E080838BED808380E380838DEA808338
:10090000108284EA808386EA80838FEA808380EB8A
:100910008083108280E180830E9436040E944D040F
:100920000895CF93C62F0E9424048C2F0E94400468
:10093000CF9108958091930190E0803891053CF427
:10094000E0E0F2E11082019680389105D9F710922B
:10095000930108958A3041F090910801492F50E0A9
:100960001416150624F025C00E949A04089520E06C
:1009700030E0682F70E060527109A0E0B2E1469F5C
:10098000F001479FF00D569FF00D1124E20FF31F69
:100990008091060190910701E80FF91FE491EC9313
:1009A0002F5F3F4F90910801492F50E024173507E2
:1009B00034F380919301480F511D403851051CF0CC
:1009C000109293010895980F909393010895EF92D8
:1009D000FF920F931F93CF93DF938C017C01C0E0B4
:1009E000D0E006C0F70181917F010E94AA04219600
:1009F000F80101900020E9F73197E01BF10BCE17C9
:100A0000DF0780F3DF91CF911F910F91FF90EF905F
:100A1000089580EB87BB81E58DB908958FB9779BE9
:100A2000FECF0895C4980895C49A0895CF93DF9394
:100A3000CDB7DEB72B970FB6F894DEBF0FBECDBF94
:100A40008FE190E00E94500580E00E9429010E9401
:100A5000D4030E9454040E9454028C0184E08983D0
:100A6000FE0132969AE0DF011D929A95E9F792E035
:100A70009A838B83C8010E942103AE014E5F5F4FB2
:100A8000BE016F5F7F4FC8010E946B038C01F2CFE4
:100A90005D9BFECF8CB908955F9BFECF8CB108950E
:100AA00090BD89B988E18AB96CE475E088E495E085
:100AB0000E94AA06089597FB072E16F4009407D00B
:100AC00077FD09D00E946F0507FC05D03EF4909594
:100AD00081959F4F0895709561957F4F0895AA1B4A
:100AE000BB1B51E107C0AA1FBB1FA617B70710F019
:100AF000A61BB70B881F991F5A95A9F7809590954B
:100B0000BC01CD010895CF93DF938230910510F49D
:100B100082E090E0E0919601F091970120E030E0D2
:100B2000A0E0B0E0309739F1408151814817590772
:100B3000B8F04817590771F482819381109729F012
:100B400013969C938E9312972CC090939701809349
:100B5000960127C02115310531F04217530718F0CF
:100B6000A901DB0101C0EF019A01BD01DF01028093
:100B7000F381E02DD7CF21153105F9F0281B390B72
:100B80002430310580F48A819B816115710521F043
:100B9000FB019383828304C0909397018093960115
:100BA000FE01329644C0FE01E20FF31F8193919340
:100BB00022503109398328833AC020919401309121
:100BC0009501232B41F420910201309103013093D0
:100BD000950120939401209100013091010121158C
:100BE000310541F42DB73EB7409104015091050104
:100BF000241B350BE0919401F0919501E217F30766
:100C0000A0F42E1B3F0B2817390778F0AC014E5F7C
:100C10005F4F2417350748F04E0F5F1F5093950123
:100C2000409394018193919302C0E0E0F0E0CF0102
:100C3000DF91CF910895CF93DF93009709F487C098
:100C4000FC01329713821282C0919601D0919701D4
:100C5000209781F420813181280F391F80919401E0
:100C6000909195018217930779F5F0939501E093A0
:100C700094016DC0DE0120E030E0AE17BF0750F4F4
:100C800012964D915C9113979D014115510509F103
:100C9000DA01F3CFB383A28340815181840F951F82
:100CA0008A179B0771F48D919C911197840F951F62
:100CB00002969183808312968D919C9113979383D2
:100CC00082832115310529F4F0939701E093960171
:100CD0003EC0D9011396FC93EE9312974D915D910E
:100CE000A40FB51FEA17FB0779F480819181840F67
:100CF000951F0296D90111969C938E9382819381C0
:100D000013969C938E931297E0E0F0E08A819B818A
:100D1000009719F0FE01EC01F9CFCE01029628816F
:100D20003981820F931F20919401309195012817EA
:100D3000390769F4309729F41092970110929601BF
:100D400002C013821282D0939501C0939401DF9167
:100D5000CF9108950F931F93CF93DF93EC018B01F5
:100D6000009731F46115710519F480E090E038C006
:100D70006EE070E081E090E00E94F506FC010097D3
:100D8000A1F380E883830115110571F013870287B1
:100D900081E883838091980190919901892B21F4B6
:100DA000F0939901E09398012097C9F0D187C0870B
:100DB00083818260838380919A0190919B01892B2A
:100DC00071F4F0939B01E0939A0180919C019091C2
:100DD0009D01892B21F4F0939D01E0939C01CF01AB
:100DE000DF91CF911F910F9108950F931F93CF9390
:100DF000DF93869F8001879F100D969F100D112411
:100E0000C8010E948305EC01009729F0A80160E069
:100E100070E00E941107CE01DF91CF911F910F91D9
:100E20000895DC0101C06D9341505040E0F70895F2
:040E3000F894FFCF64
:100E340000009E0120007000044D61696E206D6504
:100E44006E75004E65772067616D650053696E6746
:100E54006C6520706C6179657200446F75626C65B5
:100E640020706C61796572004F7074696F6E7300E5
:100E7400436F6E74726F6C6C6572004475616C7351
:100E8400686F636B33004D756C746966756E63745B
:100E9400696F6E2043617264004D6574686F6420ED
:100EA4006F6620636F6E74726F6C00537065656457
:100EB40000506F736974696F6E002D3E002020002E
:00000001FF
