S00F0000677275707065362E737265634C
S11300000C94F6000C9413010C9413010C9413013A
S11300100C9413010C9413010C9413010C9413010C
S11300200C9413010C9413010C9413010C941301FC
S11300300C9413010C9413010C9413010C941301EC
S11300400C9413010C9413010C9413010C941301DC
S11300500C9413010C9413010C9413010C941301CC
S11300600C9413010C9413010C9413010C941301BC
S113007000000000005C00000C000C007C287C28C0
S113008058DC68002410480028542840000C000064
S1130090007884008478000054385400107C1000E8
S11300A080400000101010000040000060100C00A0
S11300B038543800487C40004864580044542C00AC
S11300C01C107C005C5424003854240064140C007C
S11300D068542C0048543800004800008048000050
S11300E0102844002828280044281000045408003C
S11300F038445C00781478007C5428003844280084
S11301007C4438007C5444007C140400384474005B
S11301107C107C00447C440020403C007C106C003B
S11301207C4040007C187C0078103C003844380047
S11301307C1408003844B8007C1468004854240037
S1130140047C04007C407C003C603C007C307C00EF
S11301506C106C000C700C0064544C00007C440067
S11301600C106000447C00000804080080808000BB
S113017000040800304878007C48300030484800CB
S113018030487C00306850001078140090A8780043
S11301907C08700050744000808074007C106800FB
S11301A0447C4000781078007808700030483000B3
S11301B0F82810003048F80078100800505828003B
S11301C0083C4800384078003840380078207800EF
S11301D04830480098A07800486858001078840097
S11301E0007C0000847810000804080411241FBE59
S11301F0CFEFD4E0DEBFCDBF11E0A0E0B1E0ECEB87
S1130200FBE002C005900D92A83FB107D9F722E0A8
S1130210A8EFB1E001C01D92A630B207E1F70E9439
S113022093030C94DC050C94000085B7806885BFAB
S113023080B7806280BFBB9808958C5F8093001460
S113024080E18A95F1F700C0B399FECF8091001444
S11302500895CF93C82F0E9486030E945F014C2FFC
S113026060EE8FE00E94450140E660E680E60E9471
S1130270450140E064E080E60E94450140E06FEF04
S11302808BE20E944501CF9108951F93CF93DF9392
S1130290182FD62FC42F0E948F0385E00E948B0352
S11302A0812F0E948B038D2F0E948B038C2F0E9421
S11302B08B030E949103DF91CF911F9108950E94B7
S11302C08F0380EC0E948B030E9491030895CF92C8
S11302D0DF92EF92FF920F931F93CF93DF936C0102
S11302E0EB01E881F981E08060E080E00E940E0388
S11302F08A819B810E946403F12C82E0E80EF11C48
S1130300E3E0EE16F1040CF18E010C5F1F4FC2E026
S1130310D0E060E08C2F0E940E03CC15DD0529F49B
S113032089E391E00E94640304C08CE391E00E949D
S11303306403F801819191918F010E9464030E94EA
S113034017032196CE15DF0524F3DF91CF911F917A
S11303500F91FF90EF90DF90CF9008954F925F92AE
S11303606F927F928F929F92AF92BF92CF92DF92C1
S1130370EF92FF920F931F93CF93DF937C01DC01E5
S1130380ED91FC91C0806894BB24B2F800E010E0C9
S1130390C2E0D0E0AA24A3946894552451F8912C87
S11303A06894662462F8712C812CD12CB1E0CB1AAC
S11303B0D1080F2EF3E04F2EF02D0E948D028230D3
S11303C019F0833089F020C08A2D94E0B912892D68
S11303D0882311F18A2DC330D1050CF4892D88238B
S11303E0D9F02197B52C18C08A2DA4E0BA12892D12
S11303F0882391F08A2DCC15DD050CF0892D8823F6
S113040059F02196B42C08C00F5F1F4F073911050E
S11304101CF0B62C072D182D82E090E00E944602B5
S1130420811107C082E090E00E9446028823D1F344
S113043005C0B701CE010E946701BFCFCE01DF9195
S1130440CF911F910F91FF90EF90DF90CF90BF90CD
S1130450AF909F908F907F906F905F904F90089592
S113046080E00E941D018093F80181E00E941D013B
S11304708093F90108950E94150187B3887F87BB93
S113048088B3876088BB0E9430020895813091054B
S113049041F08230910549F0892B61F486B3817073
S11304A0089586B386958170089586B382FB882764
S11304B080F9089580E008950F931F93CF93DF93FD
S11304C080E00E941D01282F30E08091F801281B54
S11304D0310914E6129FC001139F900D1124CFE738
S11304E0D0E0BE010E941F04062F81E00E941D017E
S11304F0482F50E08091F901481B5109149FC00115
S1130500159F900D1124BE010E941F04962F802F69
S1130510DF91CF911F910F9108950E945C02833D5A
S113052044F08E3244F49E3244F4933D44F483E028
S1130530089580E0089581E0089582E0089584E0BC
S1130540089590EB980F909300108093FA0108950A
S11305500E94A10280E890E0E0E0F2E110820197BD
S11305600097E1F70895CF93C0E08C2F0E94A80272
S1130570CF5FC830D1F7CF910895982F9F70282F5F
S113058022952F70205FE0E0F0E120839083809338
S1130590FB01089580E00E94A10280E00E94BD0258
S11305A0089585B7806885BF80B7806280BFE0E02A
S11305B0F0E18EEA808381EA80838AED808382E1A0
S11305C0808388EC808388EA80838FE3808385ED51
S11305D0808380E8808381E8808380E5808389ED5F
S11305E0808381E2808380E2808382E080838BED5C
S11305F0808380E380838DEA8083108284EA808311
S113060086EA80838FEA808380EB8083108280E196
S113061080830E94B3020E94CA020895CF93C62F1A
S11306200E94A1028C2F0E94BD02CF910895809157
S1130630FB0190E0803891053CF4E0E0F2E11082A7
S1130640019680389105D9F71092FB0108958A30FC
S113065041F090910801492F50E01416150624F03A
S113066025C00E941703089520E030E0682F70E051
S113067060527109A0E0B2E1469FF001479FF00D7E
S1130680569FF00D1124E20FF31F80910601909103
S11306900701E80FF91FE491EC932F5F3F4F90910E
S11306A00801492F50E02417350734F38091FB01EA
S11306B0480F511D403851051CF01092FB0108955C
S11306C0980F9093FB010895EF92FF920F931F935D
S11306D0CF93DF938C017C01C0E0D0E006C0F7012A
S11306E081917F010E9427032196F8010190002047
S11306F0E9F73197E01BF10BCE17DF0780F3DF91A9
S1130700CF911F910F91FF90EF90089580EB87BBDD
S113071081E58DB908958FB9779BFECF0895C4986C
S11307200895C49A0895CF93DF93CDB7DEB7E097C9
S11307300FB6F894DEBF0FBECDBF88E0E9E0F1E06C
S1130740DE01119601900D928A95E1F78AE0E1E1CC
S1130750F1E0DE01199601900D928A95E1F788E0A7
S1130760EBE1F1E0DE01539601900D928A95E1F7F9
S113077088E0E3E2F1E0DE015B9601900D928A9558
S1130780E1F786E0EBE2F1E0DE01939601900D9251
S11307908A95E1F788E0E1E3F1E0DE0199960190C2
S11307A00D928A95E1F78FE190E00E94140480E0B5
S11307B00E9429010E943B020E94D102CE010196AF
S11307C00E94AE01009719F0019799F0F7CFCE017E
S11307D009960E94AE01009719F0019731F009C003
S11307E0CE0143960E94AE0104C0CE014B960E94F6
S11307F0AE01CE0183960E94AE01009719F00197D5
S113080031F0DCCF83E090E00E94AE01D7CFCE017F
S113081089960E94AE01D2CF5D9BFECF8CB908951C
S11308205F9BFECF8CB1089590BD89B988E18AB9E8
S113083060E174E08CE094E00E944704089597FB23
S1130840072E16F4009407D077FD09D00E943304D4
S113085007FC05D03EF4909581959F4F08957095BF
S113086061957F4F0895AA1BBB1B51E107C0AA1FC6
S1130870BB1FA617B70710F0A61BB70B881F991F3D
S11308805A95A9F780959095BC01CD0108950F93D1
S11308901F93CF93DF93EC018B01009731F4611523
S11308A0710519F480E090E038C06EE070E081E0FA
S11308B090E00E949204FC010097A1F380E88383F6
S11308C00115110571F01387028781E883838091F4
S11308D0FC019091FD01892B21F4F093FD01E0933B
S11308E0FC012097C9F0D187C0878381826083830C
S11308F08091FE019091FF01892B71F4F093FF0127
S1130900E093FE018091000290910102892B21F471
S1130910F0930102E0930002CF01DF91CF911F9188
S11309200F9108950F931F93CF93DF93869F8001B8
S1130930879F100D969F100D1124C8010E94AE04CC
S1130940EC01009729F0A80160E070E00E94D50551
S1130950CE01DF91CF911F910F910895CF93DF9333
S11309608230910510F482E090E0E0910402F0916D
S1130970050220E030E0A0E0B0E0309739F140819A
S1130980518148175907B8F04817590771F4828103
S11309909381109729F013969C938E9312972CC0F1
S11309A0909305028093040227C02115310531F08C
S11309B04217530718F0A901DB0101C0EF019A01A6
S11309C0BD01DF010280F381E02DD7CF2115310570
S11309D0F9F0281B390B2430310580F48A819B817E
S11309E06115710521F0FB019383828304C0909308
S11309F0050280930402FE01329644C0FE01E20F18
S1130A00F31F8193919322503109398328833AC08B
S1130A102091020230910302232B41F42091020120
S1130A2030910301309303022093020220910001CC
S1130A30309101012115310541F42DB73EB74091A4
S1130A40040150910501241B350BE0910202F09141
S1130A500302E217F307A0F42E1B3F0B28173907F4
S1130A6078F0AC014E5F5F4F2417350748F04E0F06
S1130A705F1F50930302409302028193919302C03B
S1130A80E0E0F0E0CF01DF91CF910895CF93DF93C1
S1130A90009709F487C0FC01329713821282C09137
S1130AA00402D0910502209781F420813181280F1E
S1130AB0391F80910202909103028217930779F5FE
S1130AC0F0930302E09302026DC0DE0120E030E007
S1130AD0AE17BF0750F412964D915C9113979D0188
S1130AE04115510509F1DA01F3CFB383A2834081A3
S1130AF05181840F951F8A179B0771F48D919C91E6
S1130B001197840F951F02969183808312968D917D
S1130B109C911397938382832115310529F4F093D3
S1130B200502E09304023EC0D9011396FC93EE93B0
S1130B3012974D915D91A40FB51FEA17FB0779F445
S1130B4080819181840F951F0296D90111969C93FF
S1130B508E938281938113969C938E931297E0E0F7
S1130B60F0E08A819B81009719F0FE01EC01F9CF36
S1130B70CE01029628813981820F931F20910202AF
S1130B80309103022817390769F4309729F4109239
S1130B9005021092040202C013821282D09303024F
S1130BA0C0930202DF91CF910895DC0101C06D93DF
S10F0BB041505040E0F70895F894FFCF46
S1130BBC00000602200070000402003F014A0153A9
S1130BCC0103005B0165017301810102008601953B
S1130BDC01810102009C01950181010300AB01B468
S1130BEC010200CF01E201EB012D3E002020004D5B
S1130BFC61696E204D656E753A004E6577206761AC
S1130C0C6D65004F7074696F6E73004E6577204785
S1130C1C616D653A0053696E676C6520706C61791F
S1130C2C657200446F75626C6520706C61796572D5
S1130C3C004261636B0053696E676C6520706C6174
S1130C4C7965723A0052656164793F00446F75624C
S1130C5C6C6520706C617965723A004F7074696FC1
S1130C6C6E733A00436F6E74726F6C207479706596
S1130C7C436F6E74726F6C6C65726261636B00436C
S1130C8C686F6F736520636F6E74726F6C6C6572D2
S1130C9C3A00494F2D626F617264004475616C5364
S10B0CAC686F636B2033000044
S9030000FC
