S00F0000677275707065362E737265634C
S11300000C94F6000C9413010C9413010C9413013A
S11300100C9413010C9413010C9413010C9413010C
S11300200C9413010C9413010C9413010C941301FC
S11300300C9413010C9413010C9413010C941301EC
S11300400C9413010C9413010C9413010C941301DC
S11300500C9413010C9413010C9413010C941301CC
S11300600C9413010C9413010C9413010C941301BC
S113007000000000005C00000C000C007C287C28C0
S113008058DC68002410480028542840000C000064
S1130090007884008478000054385400107C1000E8
S11300A080400000101010000040000060100C00A0
S11300B038543800487C40004864580044542C00AC
S11300C01C107C005C5424003854240064140C007C
S11300D068542C0048543800004800008048000050
S11300E0102844002828280044281000045408003C
S11300F038445C00781478007C5428003844280084
S11301007C4438007C5444007C140400384474005B
S11301107C107C00447C440020403C007C106C003B
S11301207C4040007C187C0078103C003844380047
S11301307C1408003844B8007C1468004854240037
S1130140047C04007C407C003C603C007C307C00EF
S11301506C106C000C700C0064544C00007C440067
S11301600C106000447C00000804080080808000BB
S113017000040800304878007C48300030484800CB
S113018030487C00306850001078140090A8780043
S11301907C08700050744000808074007C106800FB
S11301A0447C4000781078007808700030483000B3
S11301B0F82810003048F80078100800505828003B
S11301C0083C4800384078003840380078207800EF
S11301D04830480098A07800486858001078840097
S11301E0007C0000847810000804080411241FBE59
S11301F0CFEFD4E0DEBFCDBF12E0A0E0B1E0E0EB92
S1130200F0E102C005900D92AA3FB107D9F723E0AF
S1130210AAEFB2E001C01D92A830B207E1F70E9434
S113022039030C9456080C94000085B7806885BF88
S113023080B7806280BFBB9808958C5F8093001460
S113024080E18A95F1F700C0B399FECF8091001444
S11302500895CF92DF92EF92FF920F931F93CF9363
S1130260DF936C017B011616170604F5042F152F76
S1130270C0E0D0E060E08C2F0E94C102CC15DD0507
S113028029F487E191E00E94170304C081ED92E014
S11302900E941703F801819191918F010E94170325
S11302A00E94CA022196CE15DF0521F7DF91CF9176
S11302B01F910F91FF90EF90DF90CF9008952F92B0
S11302C03F924F925F926F927F928F929F92AF92E2
S11302D0BF92CF92DF92EF92FF920F931F93CF932F
S11302E0DF936C017B016894992492F800E010E09C
S11302F0C0E0D0E0882483946894222421F8712CEF
S11303006894332432F8412C512C5B0181E0A81A03
S1130310B1080F2EF3E06F2EF02D0E9440028230C0
S113032019F0833089F020C0882D94E09912872D2C
S1130330882311F1882D1C161D060CF0872D8823A7
S1130340D9F02197922C18C0882D94E09912872D0A
S1130350882391F0882DCA15DB050CF0872D88239E
S113036059F02196962C08C00F5F1F4F07391105CD
S11303701CF0932C042D152D82E090E00E94F901CD
S1130380811107C082E090E00E94F9018823D1F333
S113039006C0A601B701CE010E942901BECFCE013D
S11303A0DF91CF911F910F91FF90EF90DF90CF904D
S11303B0BF90AF909F908F907F906F905F904F9081
S11303C03F902F90089580E00E941D018093FA02CF
S11303D081E00E941D018093FB0208950E94150193
S11303E087B3887F87BB88B3876088BB0E94E3019B
S11303F008958130910541F08230910549F0892BAF
S113040061F486B38170089586B3869581700895EA
S113041086B382FB882780F9089580E008950F93BE
S11304201F93CF93DF9380E00E941D01282F30E0BB
S11304308091FA02281B310914E6129FC001139F10
S1130440900D1124CFE7D0E0BE010E94D603062F01
S113045081E00E941D01482F50E08091FB02481B5F
S11304605109149FC001159F900D1124BE010E94D3
S1130470D603962F802FDF91CF911F910F9108956E
S11304800E940F02833D44F08E3244F49E3244F4C1
S1130490933D44F483E0089580E0089581E0089555
S11304A082E0089584E0089590EB980F90930010F3
S11304B08093FC0208950E94540280E890E0E0E0FA
S11304C0F2E1108201970097E1F70895CF93C0E01D
S11304D08C2F0E945B02CF5FC830D1F7CF91089573
S11304E0982F9F70282F22952F70205FE0E0F0E175
S11304F0208390838093FD02089580E00E9454023B
S113050080E00E947002089585B7806885BF80B737
S1130510806280BFE0E0F0E18EEA808381EA80833C
S11305208AED808382E1808388EC808388EA8083FB
S11305308FE3808385ED808380E8808381E88083F6
S113054080E5808389ED808381E2808380E28083FB
S113055082E080838BED808380E380838DEA8083D7
S1130560108284EA808386EA80838FEA808380EB2A
S11305708083108280E180830E9466020E947D0253
S11305800895CF93C62F0E9454028C2F0E947002AC
S1130590CF9108958091FD0290E0803891053CF45C
S11305A0E0E0F2E11082019680389105D9F71092CB
S11305B0FD0208958A3041F090910801492F50E0DE
S11305C01416150624F025C00E94CA02089520E0DE
S11305D030E0682F70E060527109A0E0B2E1469FFC
S11305E0F001479FF00D569FF00D1124E20FF31F09
S11305F08091060190910701E80FF91FE491EC93B3
S11306002F5F3F4F90910801492F50E02417350781
S113061034F38091FD02480F511D403851051CF000
S11306201092FD020895980F9093FD020895EF92A1
S1130630FF920F931F93CF93DF938C017C01C0E053
S1130640D0E006C0F70181917F010E94DA02219671
S1130650F80101900020E9F73197E01BF10BCE1768
S1130660DF0780F3DF91CF911F910F91FF90EF90FF
S113067008958FE190E00E944A030E94550380E0B0
S113068090E008955D9BFECF8CB908955F9BFECFEB
S11306908CB1089590BD89B988E18AB966E473E0A4
S11306A082E493E00E94FE030895CF93DF93CDB7D5
S11306B0DEB76E970FB6F894DEBF0FBECDBF0E94B3
S11306C0EE010E94840286E0E9E0F1E0DE01119689
S11306D001900D928A95E1F788E0EFE0F1E0DE0108
S11306E0179601900D928A95E1F788E0EFE0F1E02A
S11306F0DE011F9601900D928A95E1F788E0EFE004
S1130700F1E0DE01579601900D928A95E1F70F2EE4
S1130710FCE2CF2EF2E0DF2EF02D0F2EFDE3EF2EC4
S1130720F2E0FF2EF02D0BE112E063E070E0CE0169
S113073001960E945F0181309105B1F082309105EC
S113074021F1892B91F763E070E0CE0107960E94B6
S11307505F019F938F931F930F930E9449040F90FF
S11307600F900F900F90E1CF63E070E0CE010F96F1
S11307700E945F019F938F93DF92CF920E9449045E
S11307800F900F900F900F90D0CF63E070E0CE01E8
S113079047960E945F019F938F93FF92EF920E946E
S11307A049040F900F900F900F90BFCF97FB072E27
S11307B016F4009407D077FD09D00E94EA0307FCE1
S11307C005D03EF4909581959F4F0895709561955D
S11307D07F4F0895AA1BBB1B51E107C0AA1FBB1F73
S11307E0A617B70710F0A61BB70B881F991F5A95B9
S11307F0A9F780959095BC01CD0108950F931F939F
S1130800CF93DF93EC018B01009731F461157105EF
S113081019F480E090E038C06EE070E081E090E090
S11308200E942F06FC010097A1F380E88383011541
S1130830110571F01387028781E883838091FE029A
S11308409091FF02892B21F4F093FF02E093FE02C2
S11308502097C9F0D187C087838182608383809188
S1130860000390910103892B71F4F0930103E09349
S113087000038091020390910303892B21F4F093E8
S11308800303E0930203CF01DF91CF911F910F91F6
S11308900895A0E0B0E0EFE4F4E00C942F08FE012A
S11308A0359661917191AF0180910003909101039C
S11308B00E945D04E2E00C944B08ACE0B0E0E3E697
S11308C0F4E00C941F087C016B018A01FC0117827F
S11308D01682838181FFBDC1CE0101964C01F701CF
S11308E09381F60193FD859193FF81916F01882394
S11308F009F4ABC1853239F493FD859193FF81915D
S11309006F01853229F4B70190E00E948F07E7CF89
S1130910512C312C20E02032A0F48B3269F030F4D9
S1130920803259F0833269F420612CC08D3239F061
S1130930803339F4216026C02260246023C02860FB
S113094021C027FD27C030ED380F3A3078F426FF58
S113095006C0FAE05F9E300D1124532E13C08AE0C6
S1130960389E300D1124332E20620CC08E3221F4B7
S113097026FD6BC1206406C08C3611F4206802C0C9
S1130980883641F4F60193FD859193FF81916F01BF
S11309908111C1CF982F9F7D9554933028F40C5F1B
S11309A01F4FFFE3F9830DC0833631F0833771F0B5
S11309B0833509F05BC022C0F801808189830E5F12
S11309C01F4F44244394512C540115C03801F2E0C4
S11309D06F0E711CF801A080B18026FF03C0652D45
S11309E070E002C06FEF7FEFC5012C870E9484077F
S11309F02C0183012C852F77222E17C03801F2E0B9
S1130A006F0E711CF801A080B18026FF03C0652D14
S1130A1070E002C06FEF7FEFC5012C870E94720760
S1130A202C012C852068222E830123FC1BC0832DDE
S1130A3090E048165906B0F4B70180E290E00E94B5
S1130A408F073A94F4CFF50127FC859127FE819115
S1130A505F01B70190E00E948F0731103A94F1E0F2
S1130A604F1A51084114510471F7E5C0843611F04E
S1130A70893639F5F80127FF07C0608171818281C9
S1130A8093810C5F1F4F08C060817181882777FDB7
S1130A908095982F0E5F1F4F2F76B22E97FF09C0B7
S1130AA090958095709561957F4F8F4F9F4F2068EB
S1130AB0B22E2AE030E0A4010E94C107A82EA81893
S1130AC044C0853729F42F7EB22E2AE030E025C0B9
S1130AD0F22FF97FBF2E8F36C1F018F4883579F0E4
S1130AE0B4C0803719F0883721F0AFC02F2F2061B0
S1130AF0B22EB4FE0DC08B2D8460B82E09C024FF25
S1130B000AC09F2F9660B92E06C028E030E005C0C9
S1130B1020E130E002C020E132E0F801B7FE07C076
S1130B2060817181828193810C5F1F4F06C0608157
S1130B30718180E090E00E5F1F4FA4010E94C10705
S1130B40A82EA818FB2DFF77BF2EB6FE0BC02B2DA9
S1130B502E7FA51450F4B4FE0AC0B2FC08C02B2D9D
S1130B602E7E05C07A2C2B2D03C07A2C01C0752C47
S1130B7024FF0DC0FE01EA0DF11D8081803311F4C4
S1130B80297E09C022FF06C07394739404C0822F87
S1130B90867809F0739423FD13C020FF06C05A2CF5
S1130BA0731418F4530C5718732C731468F4B701A6
S1130BB080E290E02C870E948F0773942C85F5CFF8
S1130BC0731410F4371801C0312C24FF12C0B7017C
S1130BD080E390E02C870E948F072C8522FF17C0AA
S1130BE021FF03C088E590E002C088E790E0B701E8
S1130BF00CC0822F867859F021FD02C080E201C02A
S1130C008BE227FD8DE2B70190E00E948F07A514C7
S1130C1038F4B70180E390E00E948F075A94F7CF2D
S1130C20AA94F401EA0DF11D8081B70190E00E94BD
S1130C308F07A110F5CF332009F451CEB70180E21C
S1130C4090E00E948F073A94F6CFF701868197814E
S1130C5002C08FEF9FEF2C96E2E10C943B080F93B8
S1130C601F93CF93DF93869F8001879F100D969FDC
S1130C70100D1124C8010E944B06EC01009729F0C5
S1130C80A80160E070E00E947D07CE01DF91CF9162
S1130C901F910F910895CF93DF938230910510F443
S1130CA082E090E0E0910603F091070320E030E059
S1130CB0A0E0B0E0309739F14081518148175907DD
S1130CC0B8F04817590771F482819381109729F07D
S1130CD013969C938E9312972CC090930703809342
S1130CE0060327C02115310531F04217530718F0C8
S1130CF0A901DB0101C0EF019A01BD01DF010280FE
S1130D00F381E02DD7CF21153105F9F0281B390BDC
S1130D102430310580F48A819B816115710521F0AD
S1130D20FB019383828304C090930703809306039B
S1130D30FE01329644C0FE01E20FF31F81939193AA
S1130D4022503109398328833AC020910403309119
S1130D500503232B41F420910201309103013093C8
S1130D600503209304032091000130910101211512
S1130D70310541F42DB73EB740910401509105016E
S1130D80241B350BE0910403F0910503E217F307EC
S1130D90A0F42E1B3F0B2817390778F0AC014E5FE7
S1130DA05F4F2417350748F04E0F5F1F509305031C
S1130DB0409304038193919302C0E0E0F0E0CF01FB
S1130DC0DF91CF910895CF93DF93009709F487C003
S1130DD0FC01329713821282C0910603D09107035B
S1130DE0209781F420813181280F391F80910403D9
S1130DF0909105038217930779F5F0930503E09327
S1130E0004036DC0DE0120E030E0AE17BF0750F4EC
S1130E1012964D915C9113979D014115510509F16D
S1130E20DA01F3CFB383A28340815181840F951FEC
S1130E308A179B0771F48D919C911197840F951FCC
S1130E4002969183808312968D919C91139793833C
S1130E5082832115310529F4F0930703E0930603F7
S1130E603EC0D9011396FC93EE9312974D915D9178
S1130E70A40FB51FEA17FB0779F480819181840FD1
S1130E80951F0296D90111969C938E93828193812A
S1130E9013969C938E931297E0E0F0E08A819B81F5
S1130EA0009719F0FE01EC01F9CFCE0102962881DA
S1130EB03981820F931F2091040330910503281771
S1130EC0390769F4309729F4109207031092060346
S1130ED002C013821282D0930503C0930403DF91EE
S1130EE0CF910895FC010590615070400110D8F72E
S1130EF0809590958E0F9F1F0895DC0101C06D931E
S1130F0041505040E0F70895FC0161507040019059
S1130F100110D8F7809590958E0F9F1F08950F9319
S1130F201F93CF93DF93182F092FEB018B8181FD42
S1130F3003C08FEF9FEF20C082FF10C04E815F81FE
S1130F402C813D81421753077CF4E881F9819F018C
S1130F502F5F3F4F39832883108306C0E885F985C6
S1130F60812F0995892B29F72E813F812F5F3F4FD0
S1130F703F832E83812F902FDF91CF911F910F916B
S1130F800895FA01AA27283051F1203181F1E8941B
S1130F906F936E7F6E5F7F4F8F4F9F4FAF4FB1E068
S1130FA03ED0B4E03CD0670F781F891F9A1FA11D63
S1130FB0680F791F8A1F911DA11D6A0F711D811D64
S1130FC0911DA11D20D009F468943F912AE0269F29
S1130FD011243019305D3193DEF6CF010895462F88
S1130FE04770405D4193B3E00FD0C9F7F6CF462F69
S1130FF04F70405D4A3318F0495D31FD40524193D2
S113100002D0A9F7EACFB4E0A6959795879577958E
S11310106795BA95C9F700976105710508959B0115
S1131020AC010A2E06945795479537952795BA959E
S1131030C9F7620F731F841F951FA01D08952F9277
S11310403F924F925F926F927F928F929F92AF9254
S1131050BF92CF92DF92EF92FF920F931F93CF93A1
S1131060DF93CDB7DEB7CA1BDB0B0FB6F894DEBF38
S11310700FBECDBF09942A88398848885F846E845E
S11310807D848C849B84AA84B984C884DF80EE80A8
S1131090FD800C811B81AA81B981CE0FD11D0FB6B1
S11310A0F894DEBF0FBECDBFED010895F894FFCFD5
S11310B00000080320007000044E02570260026919
S11310C00276027F0288022D3E00583A2025750AD6
S11310D000593A2025750A004C65667420536C69E2
S11310E06465723A2025750A005269676874205352
S11310F06C696465723A2025750A004C6566742033
S1131100627574746F6E3A2025750A0052696768B7
S11311107420627574746F6E3A2025750A0A004F44
S11311206E004F6666000A583A2025642025250A79
S113113000593A2025642025250A00446972656314
S113114074696F6E3A20555000446972656374691E
S11311506F6E3A20444F574E004469726563746958
S11311606F6E3A204C454654004469726563746955
S11311706F6E3A205249474854004469726563745B
S1131180696F6E3A204E45555452414C000A4C65E5
S1131190667420627574746F6E3A202573200A0099
S11311A0526967687420627574746F6E3A2025738F
S11311B0200A0A004A6F79737469636B206275743C
S11311C0746F6E3A202573200A0A00537562312C1D
S11311D0206F7074696F6E2025640A005375623243
S11311E02C206F7074696F6E2025640A0053756239
S11311F0332C206F7074696F6E2025640A00537558
S1131200626D656E7531005375626D656E75320081
S11312105375626D656E7533004261636B20746F44
S1131220206D61696E004F7074696F6E2031004FDC
S11312307074696F6E2032004F7074696F6E203362
S1131240004D656D6F727920307833363A2025630E
S11312500A0057726974696E672027256327207412
S11312606F20307833360A004D656D6F7279203007
S11312707833363A2025630A0A0069643A20253314
S1131280642020006C656E3A202533642020004DD4
S1131290656C64696E673A205B20256420256420B0
S10D12A02564202564205D0A000087
S9030000FC
